:10800000F0000120E19F0000030F0100CD9F000060
:10801000CD9F0000CD9F0000CD9F0000CD9F0000B0
:10802000000000000000000000000000A5A100000A
:10803000CD9F0000000000005DA10000CD9F00006A
:108040002DA300002DA300002DA300002DA30000F0
:108050002DA300002DA300002DA300002DA30000E0
:108060002DA300002DA300002DA300002DA30000D0
:108070002DA300002DA300002DA300002DA30000C0
:108080002DA300002DA300002DA300002DA30000B0
:108090002DA300002DA300002DA300002DA30000A0
:1080A0002DA300002DA300002DA300002DA3000090
:1080B0002DA300002DA300002DA300002DA3000080
:1080C0002DA300002DA300002DA300002DA3000070
:1080D0002DA300002DA300002DA300002DA3000060
:1080E0002DA300002DA300002DA300002DA3000050
:1080F0002DA300002DA300002DA300002DA3000040
:108100002DA300002DA300002DA300002DA300002F
:108110002DA300002DA300002DA300002DA300001F
:108120002DA300002DA300002DA300002DA300000F
:108130002DA300002DA300002DA300002DA30000FF
:048140002DA300006B
:1081440053B94AB9002908BF00281CBF4FF0FF31BA
:108154004FF0FF3000F00CB8ADF1080C6DE904CE1F
:1081640000F008F8DDF804E0DDE9022304B070470C
:10817400704700BF2DE9F04786468C460846089EA6
:10818400154674461946002B40F0C1808542B2FA68
:1081940082F245D94AB1C2F1200300FA02FC9540AB
:1081A40094402EFA03F343EA0C0C4FEA154EA8B29E
:1081B400230CBCFBFEF80EFB18CC08FB00F943EAC9
:1081C4000C43994528D9EB1808F1FF3704D2994597
:1081D40002D9A8F102072B44A3EB0903A4B2B3FB11
:1081E400FEFC0EFB1C330CFB00F044EA0344A042EB
:1081F40014D92C190CF1FF3304D2A04202D9ACF1EA
:1082040002032C44241A43EA07401EB1D44000233D
:1082140034607360BDE8F0874746DDE76346F1E705
:1082240092BB431B01214FEA154EAFB2200CB3FBA6
:10823400FEFC0EFB1C330CFB07F840EA0343984595
:1082440061D9EB180CF1FF3004D2984502D9ACF196
:1082540002002B44A3EB0803A4B2B3FBFEFC0EFB09
:108264001C330CFB07F744EA0344A7424DD92C19ED
:108274000CF1FF3304D2A74202D9ACF102032C441F
:10828400E41B43EA0040C0E7C2F120039540944058
:1082940020FA03F12EFA03F34FEA154E9040AFB2E1
:1082A4000343B1FBFEFC0EFB1C10190C0CFB07F87E
:1082B40041EA0041884522D969180CF1FF3004D203
:1082C400884502D9ACF102002944A1EB08019BB214
:1082D400B1FBFEFC0EFB1C110CFB07F743EA014348
:1082E4009F420ED9EB180CF1FF3104D29F4202D900
:1082F400ACF102012B44DB1B41EA004193E76046E9
:10830400E3E76146F7E76046A4E76346B8E78342DC
:1083140006D916B9002108467CE7C6E900E0F9E76A
:10832400B3FA83F78FB9834201D3724508D8BEEB01
:10833400020460EB030301209C461EB9002169E797
:108344003846FAE7C6E9004CF8E7C7F1200CBB4011
:108354000EFA07F522FA0CF42EFA0CF1BA401C437B
:1083640020FA0CF3B8404FEA144901431FFA84FE83
:10837400B3FBF9F809FB18300B0C08FB0EFA43EABF
:1083840000439A4540D9E31808F1FF3004D29A45D6
:1083940002D9A8F102002344A3EB0A0389B2B3FB78
:1083A400F9F809FB183308FB0EFE41EA03418E4538
:1083B4002CD9611808F1FF3304D28E4502D9A8F1F3
:1083C4000203214443EA0040A1EB0E01A0FB029802
:1083D4004145CE46434602D306D14D4504D2013829
:1083E400B9EB020E68EB0403002EA7D0B5EB0E0226
:1083F40061EB030101FA0CFC22FA07F3F9404CEAA1
:108404000303C6E9003199E74046C5E74346D9E787
:10841400034613F8012B002AFBD1181A01387047C0
:1084240030B5044687B00E4A03AB07CA83E8070099
:108434000C49A26800919568002220461146A8477D
:10844400031E06DA0121084A084808F0A1FC07B017
:1084540030BD0321064A054808F091FCF7E700BF48
:10846400E02401009CD400209A290100B8240100D2
:10847400BD29010030B587B000F064F8264C2046D1
:1084840009F040FB48B90121244A254808F077FC4B
:108494004FF0FF34204607B030BD0321214A204865
:1084A40008F06DFCA3685B680BB120469847032174
:1084B4001D4A1B4808F063FC1748FFF7B1FFA36887
:1084C4009B6913B1FF2114489847184D0321184A9A
:1084D400134808F054FC58221649284609F01CFE9B
:1084E400154A03AB07CA83E80700A268009594689D
:1084F400002209481146A047041E06DA012123463A
:108504000E4A074808F044FCC4E703210C4A044817
:1085140008F035FC0024BDE72C220100CD29010020
:10852400B8240100E6290100FE2901009CD800209E
:10853400102A0100EC24010044250100252A010031
:108544004B2A0100F0B587B01E4809F0DBFA38B9B0
:1085540001211D4A1D4807B0BDE8F04008F00FBCDA
:10856400032403211A4A194808F009FC154B194E33
:108574009F680023012203258DF80B300DF10B03B6
:10858400039304928DF814500E48A3B2D7F808C090
:1085940003A9E047034658B90F4A234629460B4826
:1085A40008F0F6FB0134782CE3D103210B4AD1E720
:1085B400421DF7D0022132460448009408F0F2FB31
:1085C400F0E700BF182201007A2A010048240100C4
:1085D400942A0100D42A0100B12A0100F42A0100DE
:1085E4002DE9F04F91B0009302F004030293C2F31B
:1085F400C2030133840705460E46DDF868900392F2
:10860400059340F0BB81041D30B1072909D86FF0F0
:108614001B0011B0BDE8F08F01F00706341DC6F150
:108624000806009B4FF000084FF0040A591E4FF053
:10863400FF3347460193C3465346CDF810800DB12E
:10864400009A22600598002800F3E8809848009A70
:10865400824203D397488242C0F0E080039AA4EB9D
:10866400050E92074FEA9E0000F103810F2F00F2DE
:10867400B180002D00F0058107F140020DEB020CE2
:10868400019A0CF8200C0CF8102C0498013004907A
:10869400E7E07A285DD84B280ED8472859D82928EE
:1086A4002DD8252852D054D820287AD02338D0F178
:1086B400000B4BEB000B74E04C382E2849D8DFE854
:1086C40000F07048484848484848484848484B489B
:1086D4004848484848484859484B4B595959704BA1
:1086E4006D487048184B184848827F4B48484B489F
:1086F4007F0000204FF0000B4FF0040A38E0012205
:108704002A38C0B202FA00F010EA0E0F49D110F074
:10871400625C2FD110EA020B43D06046013C544402
:10872400B4FBFAF40AFB04F4002D61D0A3EB050CAE
:10873400A444B4453FF66BAF002868D1042B47D15D
:1087440059F8043B2360042304342AE0019A013AD3
:1087540001924FF0000B24E011F8010C6C2834D185
:10876400002011F8023C83466C2BC5D14FF0080A57
:108774005346D3E709F1070929F00709073424F020
:108784000704F9E802AB35B106982044B0423FF63D
:108794003EAFC4E900AB4FF0000B08344FF0080AB9
:1087A400534611F8010F002878D0BBF1000F7FF475
:1087B40070AF2528F5D14FF0010B019B01330193D4
:1087C4004FF0040AECE7584694E700208346A5E7F7
:1087D400082B02D06FF015001BE709F1070929F0F7
:1087E4000709F9E80223C4E9002308230834D8E779
:1087F40068B9042B02D109F10409A4E7082BE9D1D3
:1088040009F1070929F0070909F10809EDE7059AB3
:10881400013A059259F8042B009210E7039A900745
:1088240020D54FF0010CA4EB050E4FEA9E00BEF5D7
:10883400007FCFD20F2FCDD8F5B107F140020DEB59
:10884400020E019AC0B20EF8200C0EF8102CBCF1E6
:10885400000F3FF41AAF60F07F000EF8200C08F10F
:1088640001080137C5F108024FF6DA7E0434069296
:1088740097E74FF0000CDAE7BCF1000F01D00136A6
:10888400EFE7029802360028EBD10098CDE90631D3
:10889400FFF7BEFDDDE906310644E2E7631BB3F5ED
:1088A400806F97D245B9A6F10804E018B1E600BF7D
:1088B4006C210100D8370100029A9B0828602B70B4
:1088C4009DF81030C2B1EB7085F80280B8F1000F4A
:1088D40005D0002208A8C5F1010C97420ED14FF033
:1088E400000AC5F101030DF1200901930DF1300BCC
:1088F400574512D1601B8CE66B70E5E710F8013B1D
:10890400190608D504EB0C0EB64503F07F033FF6B9
:108914007EAE04F8013B0132DFE7B8F1000F03D06B
:1089240099F90020002A17DB029BD3B11AF80B2017
:1089340004F8012B0022019B98182044B0423FF612
:1089440066AE99F80000009904F8010B20460392E2
:1089540009F0E2FB039A14440AF1010A09F101093E
:10896400C6E799F8002055F822300093029B00983E
:1089740045F82230FFF74CFD421CDCE76FF00D0098
:1089840047E600BF2DE9F04F97B000AFD7F880B0AD
:108994003B62CBF3C0030446894690F802A0FA6216
:1089A400BB6141B9457800780AEB800020444D450D
:1089B40017D8A0EB0409E378FB61BAF1000F02D0E9
:1089C4001BF0010F16D1FB6953BBFB6A1BB149466F
:1089D40020463A6A98474D4628465C37BD46BDE86E
:1089E400F08F461C3046FFF713FD0130304409F187
:1089F4000109DCE7626823787A62FA6A990079618E
:108A040004EB8301002A40F001810E464FF0000878
:108A14004D4601EB0A094E454CD101EB0A0610E024
:108A24001BF0020FD1D023789A007A61626804EBBC
:108A340083017A62FA6A002A77D14D46904601EBA7
:108A44000A061BF0050F0CBF02230123FB62FB691E
:108A540006EB430A0BF00203BB625645BCD016F882
:108A6400021B16F8013C54F82390AF4B994502D3EE
:108A7400AE4B994536D3BB69002B40D0786A07F0DA
:108A840088FD00283BD0E9468AB06A46A84B53616A
:108A94007B6AC2E906314FF400731384A54B42F894
:108AA400103F00234FF41251A34800F007FD023D8C
:108AB400CD46D2E716F8013BF96254F82300FFF7DC
:108AC400A7FCD7F88430F96A01304BB1D7F8883065
:108AD40098453EBFD7F8843023F8180008F1010800
:108AE400054498E7BB6923B1786A07F052FD002872
:108AF400C9D11BF0010F05D1FB6AED1AADE7BB6AC2
:108B0400002BAAD04846FFF783FCD7F8843053B132
:108B1400D7F8883098453FBFD7F88420431C22F803
:108B2400183008F10108054497E7BAF1000F73D033
:108B34001BF0040673D0D046002607F148005246C5
:108B44003B61B96209F0E8FAB96A3B6901EB0A02D0
:108B5400BA62FA69F9695200FA60BA6A02EB410230
:108B64003A610BF00202BA603A69B96A8A4258D192
:108B740062781BF0020F18BF00217A6208BF4FEA27
:108B84005801B2181BF0010FD2B240F09F801BF0C5
:108B9400040F14BF40460020BB616270A070E170F6
:108BA40020463A6A7969FB6A9847051EFFF614AFB6
:108BB400BB69414623707B6A3A6A6370FB6984F837
:108BC40002A0E37007F14800FB6A9847B0F100087F
:108BD400C0F2B4807B69A9EB0A01C91AFB683A6A3E
:108BE400C91AD7E90A0398470028C0F2A9804FF0B0
:108BF400000BA84408EB000507F1380AB34567D316
:108C040000213A6A0846FB6A9847E5E656464FF063
:108C1400000807F1380092E75646D04696E7B0467A
:108C240094E7BA6A12F8021B12F8015CBA6254F8AB
:108C340025003D4A904202D33C4A90421ED3BA6971
:108C440032B1786A7B6007F0A4FC7B6800288BD182
:108C5400BA6802BB08F1280207F1300C08F10100E0
:108C6400944407F1580208F1020852FA80F00CF813
:108C7400101C5FFA88F800F8105C75E7BA693AB11D
:108C8400786A7B6007F085FC7B6800287FF46CAF12
:108C94001BF0010F09D006F1280207F13000711C06
:108CA400161806F8205CCEB25EE71BF0040F3FF402
:108CB4005BAF08F1280207F1300008F1010102EB73
:108CC400000808F8105C5FFA81F84DE7002063E7BC
:108CD4001BF80A3054F8239087F83730D7F88430DB
:108CE400FBB133F81B8001213A6AFB6A07F13700B4
:108CF4009847002824DB0544B8F1000F06D1484604
:108D0400FFF786FB00F101081FFA88F84146484640
:108D14003A6AFB6A9847002812DB05440BF1010B01
:108D24006CE7D7F88480DEE76C210100D8370100B6
:108D3400142B0100040000015024010045464BE6B9
:108D4400054649E6014B1860704700BF80C5002006
:108D540080B505460E461746984606F01BFB0346AB
:108D640009F0F8F90446DFF81890424649F8003053
:108D740039463046A84754F8090001F097F900BF76
:108D8400080000002DE9F047058B044628079046AB
:108D940011D4022905F0070540F0CC80204607F0E5
:108DA40080FE78B10138218B042811D8DFE800F067
:108DB400C2106D85950001290CBF45F0100545F0E2
:108DC4002005258388F31188BFF36F8FBDE8F087F2
:108DD40001F0070AAA4500F0A5800027B9463E46DF
:108DE400A368002B00F0BC8041F00801218388F3C4
:108DF4001188BFF36F8FA168002900F0BA800D6855
:108E0400002900F0B680334652462046D1F804804B
:108E1400C047002D76D02B6829461D46F0E701F0A7
:108E240007035A1F012A1BD8002221F00701062B31
:108E3400276889B2C4E9002209D13B4603E0628B6A
:108E4400013262831B68002BF9D141F002012046F4
:108E5400218307F026FE00287AD041F0200176E035
:108E6400042B0AD121F0070189B22046218307F09F
:108E740018FE10B141F020012183218B01F0070A73
:108E8400AA454FD00027B946AAE7236921F0070174
:108E940041F00601062DD3F8009021832DD1B9F1BC
:108EA400000F3FD041F00801218388F31188BFF3FC
:108EB4006F8F20463949C84729E021F0070123690B
:108EC40041F0040189B2042DD3F804902183E6D043
:108ED40000274FF0040A3E4682E721F00701236988
:108EE40041F0050189B2052DD3F808902183D6D02D
:108EF40000274FF0050A3E4672E700274FF0060AA6
:108F04003E466DE72B4687E7B9F1000FD1D1EFF369
:108F14001188202383F31288BFF36F8F238B23F0F0
:108F240008032383258BEA062ED525F0100323831B
:108F340005F007056669218B002EBFF670AF00238C
:108F44002768C4E9003321F0070141F001012183BE
:108F5400218B4FF0000901F0070AAA457FF440AFC6
:108F6400002F9CD041F00801218388F31188BFF3BE
:108F74006F8F002FC8D03D6839463346524620468D
:108F840007F0BBFD2F46F4E7AB067FF51BAF25F0DA
:108F94002003238305F0070500E700BF2B0B010026
:108FA4002DE9F047044607464FF00109DFF85080E9
:108FB40014B93846BDE8F08794FAA4F5B5FA85F5F6
:108FC40009FA05F32E0108EB05156FEA030A24EAF2
:108FD40003042B7B002BEBD058F806301B694BB9EC
:108FE4004644736804222846196807EA0A0700F011
:108FF40051FADDE7284698470028D9D1F0E700BFA9
:10900400C824010030B5002289B00F490F4808F088
:10901400B6FF002200230024CDE906230E230C4DC5
:10902400CDE903344FF440722846CDE90144094B9D
:109034000949009405F0E0FE0849284608F025FE99
:10904400204609B030BD00BF6590000010CC002060
:1090540088C700203D930000B0E40020C82B010025
:10906400014805F041BE00BF78C700202DE9F04754
:1090740080461F480F4607F000FE0646002830D001
:1090840000252846BDE8F087237B6BB12368DB68A5
:109094000BB12046984723681B69D3B9636804223F
:1090A4002046196800F0F6F9013610344C45EBD32C
:1090B400B8F1000FE5D0002DE2D02846FFF770FF8D
:1090C4000546002FF7D000214FF4A47006F044F9B0
:1090D400F1E7204698470028E0D00AFA06F31D433A
:1090E400E2E705464FF0010A024CDFF80C90DDE799
:1090F40018CE0020C8240100D8240100014B53F8E5
:10910400200070477C25010008B5034608462BB1B2
:10911400044A136000F05EFC002008BD6FF01500E7
:10912400FBE700BF84C5002010B5044C237813B9B5
:10913400034805F0D9FD0123237010BD9CDC0020F9
:1091440078C7002010B50446064807F096FD3CB1E8
:10915400054BD3E8EF1F0139C3E8E21F002AF8D119
:1091640010BD00BF10CE002014CE00200020014608
:10917400034BD3E8EF0FC3E8E21F002AF9D170478D
:1091840010CE002070B5FFF7F1FF0546074C084EDE
:10919400B44200D370BD63685B792BB123685B680C
:1091A40013B12946204698471034F1E7C82401003A
:1091B400D824010010B5044C0449204607F019FBDB
:1091C400034B1C6010BD00BF14C7002068250100BC
:1091D40008CE002008B50023074A4FF4004113705D
:1091E400064A07481360074A1360FFF78DFFBDE87E
:1091F4000840FFF7DFBF00BF9DDC002010CE002039
:109204007B0C010014CE00200146002200230148FB
:1092140007F010BB14C70020014807F0A6BB00BF2D
:1092240014C70020024B0146186807F0F2BB00BFC8
:1092340008CE0020014807F027BC00BF14C7002057
:1092440070B5264B1878002847D0FFF7E5FF054690
:1092540070B1234BD3E8EF1F0139C3E8E21F002AA2
:10926400F8D1204C204EB4422DD32846FFF7DAFF24
:109274001E4B1F4C1B68002B19DD08F039FE4FF400
:109284007A72A0FB020302FB0131C30B43EA4143A0
:10929400D4E900209B1A40F2E9324FEAD13161EB64
:1092A4000001934271F1000101D3FFF76BFFD4E990
:1092B400003213F57A7342F10002C4E90032BDE8CA
:1092C4007040FFF7B7BF63685B7923B12368294611
:1092D40020461B6898471034C5E770BD9CDC00200D
:1092E40014CE0020C8240100D824010010CE002090
:1092F40008CC002070B50D4D297861B90120FFF725
:10930400B5FE0B4C0B4EB44206D3FFF799FF002871
:10931400FBD101232B7070BD63685B791BB123689B
:1093240020469B6898471034EDE700BF9DDC002081
:10933400C8240100D824010000212DE9F047084683
:10934400FFF794FE044658B340F267684FF00009F3
:1093540008F000FF1B4B1C4A1B58136033B11B4B16
:109364001B68092B02DD1A4805F0BEFC0025194FC5
:10937400DFF85CA044B12046FFF712FE044618B99A
:109384004FF0FF384FF0FF39FFF75AFF064628B970
:10939400B5B942464B46504605F0CAFC3546E9E7A6
:1093A4004FF0FF384FF0FF39D2E72B689B691BB1B0
:1093B40000222846114698471035BD42F5D3E8E708
:1093C400054DFAE7080000000CCE002014CE002062
:1093D40078C70020D8240100C824010013B5184818
:1093E40007F04BFC174B1B7873B1EFF31184202368
:1093F40083F31288BFF36F8FFFF722FF84F3118882
:10940400BFF36F8F02B010BD0F4B1B68002BF9D058
:1094140050B9002200230D48CDE900234FF4004247
:10942400002306F00DFAEDE70928EBD1074808F010
:10943400B2FD074802B0BDE8104005F055BC00BFBE
:1094440014CE00209DDC00200CCE002010CC002087
:1094540078C7002010B5064B04461B689847214680
:10946400A060044807F062FABDE81040FFF7B6BFF9
:1094740084C5002014C70020044A054B9B1AB1EB95
:10948400D30F34BF52F83100002070474824010044
:10949400C8240100084B10B4C31A44681B110133DB
:1094A400237143689A7101224368196043685A71B1
:1094B40010BCFFF739BE00BFC82401002DE9F04FEE
:1094C4008FB0C1F34A2804AF0D469146B8607B6063
:1094D4000C0DB8F1000F63D000264FF0040B4FF0D1
:1094E4000A0A07F11403C7F80C80C7E907667E620D
:1094F4000193CDF808B0CDF800A007F11C03324663
:109504004846F968FFF73EFAB0F5006F03461CD3EE
:109514006C468AB0D9F8041004AB26481A46C3E94D
:10952400050140F2FF71D9614FF400711984224B97
:1095340042F8103F4FF4125133462048FFF7BEFF64
:10954400A5462C37BD46BDE8F08FC0F30A0804F1E8
:109554001700184420F0070080083B60FFF754FE12
:1095640068F35325044690B13B6800F11001C7E944
:10957400083607F11403F961CDE900A3CDF808B06A
:1095840048460F4AF96807F11C03FFF7FBF968F333
:1095940053252A4620467B68B96807F0A0FBD0E72C
:1095A40004F1170020F007008008FFF72DFE0446A1
:1095B400EDE700BFDD2B0100040000017024010071
:1095C400B70C01002DE9F04F87B00446DDE9105ACD
:1095D400DDE912690F4693469846A6B31021334637
:1095E40052460020CDF80090CDF81490FEF7F8FF15
:1095F400014605F117000844144B04F007040BF06E
:10960400070BE40020F0070003EA412344EA8B142B
:1096140080081C430391FFF7F7FD44EA055405460F
:1096240040B13EB1334652460399CDF80090103014
:10963400FEF7D6FF434622463946284607B0BDE822
:10964400F04F07F04CBB3146D3E700BF00FE0F00DC
:10965400406820B1034BC01A40F3CF0070474FF06D
:10966400FF307047482401000EB403B503AB53F830
:10967400042B01460448019301F08AF802B05DF816
:1096840004EB03B0704700BFF70D0100CA0605D410
:109694008B064CBF02490349FFF7E6BF704700BF82
:1096A400BE360100BD3601002DE9F04F89B09B465E
:1096B400149B9DF84CA00693159B04460593169B9A
:1096C4000D469046179E0493BAF1000F00F09D805A
:1096D40006F48073079307F0EAFA06F002090246DB
:1096E40000283ED020469149FFF7BEFF0746B9F156
:1096F400000F08D016F0440F35D12A4620468C4975
:10970400FFF7B2FF074406F0010353B1894B20462B
:1097140053F82A20884B8949002A08BF1A46FFF7C4
:10972400A3FF06F48073002B49D006F00803002B36
:1097340063D1B8F1000F66D0424620468049FFF756
:1097440093FF0546069B3D44002B6DD1049B002BE3
:1097540073D1F30700F1E48031462046FFF796FF0A
:10976400D8E00746C3E7774B18680028CAD0764B81
:109774004FF47A791B684FF46161B5FBF3F5B5FBDF
:10978400F0F300FB135509FB05F5B3FBF1F2B5FB50
:10979400F0FE4FF03C0C01FB123100FB1E55B1FBF7
:1097A400FCF309FB05F5B5FBF0F50CFB13112046A2
:1097B4000091CDE901E56549FFF756FFA2E706F000
:1097C4000803EBB1624B204653F82A206149FFF7A6
:1097D4004BFF0546B8F1000F05D0424620465849D4
:1097E400FFF742FF0544BBF1000FABD05A462046B9
:1097F4005949FFF739FF0544A4E74FF0000BE1E7AF
:1098040006F00805E6E745469CE7BBF1010F069B19
:1098140006D1002B64D1049B002B7BD000250CE0E7
:10982400002BF8D04D485CE04D48069B22464D493C
:1098340006F07EFE049B002B68D0DFF82C81DFF855
:109844002C91049F3146102F204628BF10274FF03B
:10985400000BFFF71BFF5D4545DC059B4946204691
:109864001A78FFF701FF4FF0010B1BF0070F03D12C
:1098740041462046FFF7F8FE5F453BD9059B494624
:10988400204613F80B20FFF7EFFE0BF1010BBBF1A1
:10989400100FEAD14FF0000B20463549FFF7E4FEE4
:1098A4005A46059B20469A5CA2F120015F2928BFF5
:1098B4002E223049FFF7D8FE0BF1010BBBF1100F3C
:1098C4001DD01BF0070F03D141462046FFF7CCFE05
:1098D4005F455A46E5D841462046FFF7C5FEEBE70B
:1098E4001F485546A1E741462046FFF7BDFE0BF150
:1098F400010BB0E720462049FFF7B6FEC5E7059BFC
:109904003B440593049BDB1B04939AD1BAF1000FEB
:109914007FF41FAF204609B0BDE8F04F07F05CBAF2
:109924002046054A0549FFF79FFE15E7212C010053
:10993400252C01008C2501001C2C0100133301008F
:109944004A2C010020CE00201CCE00202E2C010029
:10995400A02501004E2C0100542C0100250E01000D
:10996400F70D010095A70000612C0100592C01009E
:10997400632C0100652C01005F2C010042F20F737F
:1099840073B58B4228BF0B4605680446052168461B
:109994000D4A05F095FF0646636828460B225B686E
:1099A4000A4907F00BFA63683246694628465B6841
:1099B40007F004FA63681B2228465B68044907F031
:1099C400FDF902B070BD00BFD82D0100842C010048
:1099D400682C010000210123064A904206D8064A59
:1099E40001B901231360054B186070470121400839
:1099F4005B00F2E740420F001CCE002020CE002086
:109A0400F8B50D460446064F4618B44201D128461F
:109A1400F8BD14F8011BBB6801485B689847F4E77C
:109A240004220100014B036000207047E825010077
:109A340008B5044806F0D4FDBDE80840024806F025
:109A4400CFBD00BFCA2C0100FF2C01002DE9F04757
:109A540006460C4600AF002936D0D1E90012E9468B
:109A64008AB06D46A3684FF0050AA8461F48C5E9A9
:109A74000723C5E9050148F810AF002342464FF417
:109A840021511B48FFF71AFDD4E90312CD4663693F
:109A9400AD461848C5E90723C5E90501C5F810A076
:109AA400002342464FF421511148FFF707FDCD46EC
:109AB400E3690121104A0E4807F06AF9A3690121FC
:109AC4000E4A0B4807F064F9012E07D1EFF3058322
:109AD4000B4A31460648103B07F05AF921463046F6
:109AE40004F0A0FEBD46BDE8F08700BF2D2D0100A7
:109AF400A02401005C2D01008B2D01009A2D010092
:109B0400C82D010030BFFFF7FDBF00BF2DE9F041B4
:109B140005460B4EDFF82C80324606EB0807CC1BBB
:109B24002046094908F0F8FAA01942460021083CE9
:109B340008F0FFFA2C6707F10800BDE8F08100BFC8
:109B44000000000008000000D8240100074A9368C0
:109B540093F90E10002907DB526993421FBF044A90
:109B6400536843F080535360704700BF68D40020AB
:109B740000ED00E070B52A4C06460D4629482A49F6
:109B840007F0C4F9A36ADB0647D52648274907F03E
:109B9400BDF91120A36A1C0704D52248244907F003
:109BA400B5F912201E4CA36A990712D521491D4804
:109BB40007F0ACF9636BA26A120609D501211E4AAB
:109BC400184807F0E5F81EB1A36A23F08003A362E6
:109BD4001320134CA36ADE0704D51248174907F073
:109BE40095F91420A36A9C0604D50E48144907F07D
:109BF4008DF915200A4B9A6AD10658BF9A6A9A6A57
:109C0400920642BF5A6A22F400525A629A6A42F099
:109C1400FF029A6200232B7070BD1020BAE700BFC8
:109C240000ED00E0A0240100DB2D0100F12D010076
:109C3400242E0100372E01004F2E0100652E010055
:109C4400842E010010B5244C2449254807F05EF900
:109C5400A36A99013ED52248224907F057F91E20EC
:109C6400A36ADA0104D51E481F4907F04FF91F20E3
:109C7400194CA36ADB0204D519481C4907F046F9BC
:109C84000220A36A1C0304D51548194907F03EF9BC
:109C94002120114CA36A590304D51148154907F032
:109CA40035F92220A36A9A0304D50D48124907F016
:109CB4002DF92320084CA36ADB0304D508480F4977
:109CC40007F024F92420A36A6FEA03436FEA1343DD
:109CD400A36210BD1D20C3E700ED00E0B32E010018
:109CE400A0240100CB2E0100DE2E0100F82E01007D
:109CF400222F0100402F0100652F01007F2F01005A
:109D040070B5294C06460D462848294907F0FEF847
:109D1400A36AD9043CD52548264907F0F7F817204B
:109D2400A36A1A0504D52148234907F0EFF818203F
:109D34001D4CA36A9B0512D51C48204907F0E6F880
:109D4400A36BA26A100409D501211D4A174807F024
:109D54001FF81EB1A36A23F40043A3621920124C16
:109D6400A36A590504D51148164907F0CFF81A20FB
:109D7400A36ADA050ED50D48134907F0C7F81B206E
:109D8400094A936A43F47F43936200232B7070BDA6
:109D94001620C5E7A36A9B04F2D504480B4907F0D3
:109DA400B5F81C20ECE700BF00ED00E0A0240100A2
:109DB400AA2F0100C02F0100242E0100D12F010081
:109DC400EA2F0100FF2F01001A300100842E010048
:109DD4002DE9F0478AB0694B0446D3F804A08946BC
:109DE4001646002500AFCAF3080885F31188BFF3AF
:109DF4006F8F02F07F43B3F17F4F1ED1D3071CD482
:109E0400500603D4110708D4012508E05C495D48D5
:109E140007F07CF816F0040600D04C460025002319
:109E2400FB71A8F10303092B00F28680DFE803F03D
:109E3400077C7F798484848484822C46EFE75249AA
:109E4400504807F063F800234C4EFB71F36A9A07FD
:109E540005D54E494B4807F059F8002329E0F36A29
:109E6400002B01DA4A49F5E7F36A5B00F5D5494965
:109E7400444807F04BF87369A26943F48073736133
:109E8400BFF34F8FBFF36F8F736932F8022C23F443
:109E940080737361BFF34F8FBFF36F8F4DF60273FF
:109EA4009A4228D1236801213B4A364806F070FFC4
:109EB4002368FA79DAB907F1080604F1200C32466E
:109EC40020686168083403C264451646F7D17A6A8B
:109ED400002D4ED0C2F3080121B96FEA52226FEA75
:109EE40042227A62184607F10801FFF7AFFD2837CE
:109EF400BD46BDE8F087B36ADBB22BB10120F91D82
:109F0400FFF738FE0346D4E7B36A13F47F4F04D057
:109F14000120F91DFFF7F4FEF4E7B36AB3F5803FBF
:109F24009BD3FFF78FFEEDE70020F91DE8E7002043
:109F3400F91DEFE719498DE7194A6E461AF4F87FBF
:109F44008AB0184B18BF13466A461749C2E905136D
:109F5400A8F11003D3614FF400731384134B42F838
:109F6400103F00234FF411510648FFF7A7FAB546F6
:109F740073E722F4FF7222F00102B2E700ED00E081
:109F840060300100A0240100833001009A300100F8
:109F9400BB300100C9300100E83001000431010088
:109FA4004730010032300100283101000400000173
:109FB400044B5A6942F010025A615A6942F48062B1
:109FC4005A61704700ED00E0EFF30880EFF3098178
:109FD40001B57246FFF7FCFE01BD00BF002080F30F
:109FE4001488BFF36F8F002080F30A8880F30B88F6
:109FF40007F05AFA00200E490860BFF34F8F0D484E
:10A0040080F3088800F02CF8202080F311880A4897
:10A014004FF40061401880F30988EFF314800221A3
:10A02400084380F31488BFF36F8F00F00FF900002A
:10A0340094ED00E0F0000120B0E700200023184672
:10A044000649D1F89020C2F30722934200DB7047FF
:10A05400C1F89830C1F8A0000133F6E700ED00E044
:10A0640010B572B6002484F31388FFF7E7FF234684
:10A074004FF0FF300C4A03F120010133102B42F85A
:10A084002100F8D100234FF0FF30074A03F16001AB
:10A094000133102B42F82100F8D162B6BFF34F8F81
:10A0A400BFF36F8F10BD00BF00E100E0084B9B6859
:10A0B40083420BD1EFF3058343B1064B5A6842F058
:10A0C40080525A605A6A22F400425A6207F0D5BE9E
:10A0D40068D4002000ED00E06FF00A01084A93689C
:10A0E4009967084958674B6843F080534B600023D5
:10A0F40083F31188BFF36F8F9368986F704700BF25
:10A1040068D4002000ED00E0104A936883F87D00D5
:10A11400EFF31183202383F31288BFF36F8F4FF083
:10A124000061536920F0FF009360094A5160196F80
:10A13400084A1160002193F87D2010435A6F596733
:10A1440082F31188BFF36F8F704700BF68D400207B
:10A1540000ED00E048CE002010498A6882F87DE0D6
:10A164004FF030001044EFF3098C80E8F01F744680
:10A174007046FFF7C9FFA64608498A68864602F179
:10A18400300090E8F01F8CF3098802F1000004B558
:10A1940006F0C6FEBDE804407047000068D4002005
:10A1A4001EF0040F0CBFEFF30880EFF30980816900
:10A1B40011F8021C0229FFD001B506F09CFE01BD76
:10A1C40040B2002807DB01234109034A00F01F00C5
:10A1D400834042F82130704700E100E040B200289B
:10A1E4000CDB01220649430900F01F0082402033A2
:10A1F40041F82320BFF34F8FBFF36F8F704700BF29
:10A2040000E100E0054B420953F82220012300F04D
:10A214001F0003FA00F01040704700BF00E100E0A7
:10A2240040B2002801F10101ACBF00F16040064BCF
:10A234004FEA4111C9B2ABBF00F5614000F00F0015
:10A2440080F800131954704714ED00E00B4A08B568
:10A254000B4B22F07F029A60BFF34F8FBFF36F8FD7
:10A26400D3F8882022F47002C3F8882004F0C4FBD9
:10A2740005F01CF900F04CF804F0FEFB008000002F
:10A2840000ED00E042F8203C009B0C4942F81C3CE5
:10A29400019B21F0010142F8183C029B42F8081C82
:10A2A40042F8143C4FF0807342F8043C00234367A7
:10A2B4004FF43C43203A0265C3677047558D000054
:10A2C4000C4B15469860026F0B4B0E461A60036EDA
:10A2D40083F30B882C4686F309884FF00000074B64
:10A2E400984720464FF000014FF000024FF0000362
:10A2F400034C204768D4002048CE00202D0F0100D5
:10A30400558D00001022014B1A61704700ED00E0EA
:10A31400002320210348C2180133412B82F8001383
:10A32400F9D1704700E100E008B5EFF30583064A70
:10A33400103B02EBC30152F8330049688847BDE87B
:10A344000840FFF703BC00BF402201001FB5094CC1
:10A35400094A23460121094800F012F90023039316
:10A36400074B0121E41A01A80193029400F012F9A9
:10A3740004B010BD0000042080C50020E8250100C1
:10A3840088C7002010B50C7A0B6804F01F0223F074
:10A394001F031A43CB68640923F01F03054943EAEA
:10A3A400440343F00103C1F89800C1F89C20C1F8AC
:10A3B400A03010BD00ED00E010B50A4BD3F890308A
:10A3C400C3F30723013B984208D901210346064AF7
:10A3D400064806F0DDFC6FF0150010BDFFF7D2FF54
:10A3E400FBE700BF00ED00E03F31010090240100D5
:10A3F4002DE9F04F8946144606464FF00008514DAA
:10A4040085B0C84527DAD6F804A0BAF1000F44D0C5
:10A41400BAF11F0F17D91AF01F0F14D1D6F800B0D4
:10A424001BF01F0F0FD1584606F0A1FD07460AEB9B
:10A434000B00013806F09BFD874210D06FF0150722
:10A44400414A3B4601E04346404A0121404806F068
:10A454009FFC6FF01504204605B0BDE8F08F17F19E
:10A46400160FEDD0BC42EBDDC5F89870D5F89C1002
:10A47400C5F89870D5F8A03021F01F0143F01F0BE8
:10A48400D6E900321A44994202F1FF3A1DD1D3456C
:10A4940007D13146F8B206F073FD08F101080C3615
:10A4A400AFE73146C5F89870D5F89C3022F01F020A
:10A4B40003F01F031343C5F89C30E0B206F060FDBF
:10A4C40010F1160FC5D0441CE7E7C5F89870D5F80D
:10A4D400A020013B23F01F0302F01F021343D345C6
:10A4E4003146E0B2C5F8A030E8D006F049FD10F1DD
:10A4F400160FAED0C5F89870D5F89C209DF808309A
:10A504000BF1FF3B62F304038DF80830D5F8A0305B
:10A514009DF808205B0863F347128DF80820D6E9FC
:10A5240000321344009323F01F035B44A3EB0A039C
:10A53400013023F01F036946C0B20393FFF73CFFC9
:10A54400BEE700BF00ED00E0883101006531010085
:10A55400902401000522044BC3F89420BFF34F8FCD
:10A56400BFF36F8F704700BF00ED00E0BFF35F8F54
:10A574000022024BC3F89420704700BF00ED00E0B6
:10A5840010B5034C2278FFF733FF207010BD00BFD5
:10A594009FDC00202DE9F74F294D8A4606464FF0EF
:10A5A4000008AB46274FD0451BDAD6F80490B9F122
:10A5B400000F3FD031680846019106F0D8FC01999C
:10A5C400044609EB0100013806F0D1FC84424FF047
:10A5D40014021D4B08D002FB08F36FF015024BF870
:10A5E400032003B0BDE8F08F14F1160F2C60F8D0EF
:10A5F4001978A142F5DD02FB08B0C7F89840C7F806
:10A604009840D7F89C4000F10801007B64F30400F3
:10A614000871D7F8A0000C79400860F347140C7156
:10A62400D7F89C1021F01F016960D7F8A01021F021
:10A634001F01296108F1010814350C36B3E700BF86
:10A644004CCE002000ED00E09FDC0020F0B5414935
:10A65400414CD1F890302568C3F307239D4287B05D
:10A6640075D80020FFF782FF3C4BC1F8C03085420B
:10A6740016D13B4C01A82570FFF7D4F900250646F6
:10A68400384FAE4213D1002023783249D1F89020BC
:10A69400C2F30722934254DBFFF75CFF00202FE054
:10A6A400616801EB0011FFF76DFE0130DFE70199EE
:10A6B400280101EB0513DA683A40B2F5001F21D0F6
:10A6C400B2F5800F2BD0B2F5801F38D15A689B6841
:10A6D4000958013B22F01F0003440120844623F063
:10A6E4001F0340EA4C10CDE902218DF8100002A9A5
:10A6F40020780593FFF760FE00281DDA6FF015003F
:10A7040007B0F0BD5A689B680958013B22F01F004E
:10A7140003444FF0020C012023F01F03E1E75A68C1
:10A724009B680958013B22F01F0003444FF0000CC2
:10A73400062023F01F03D4E7237801332370013567
:10A744009FE7C1F89830C1F8A00001339EE74FF0AD
:10A75400FF30D5E700ED00E0F4250100AAFF440036
:10A764009FDC00200000F0FF08B5024B1B689847EF
:10A77400002008BD60CE0020034B044A1860937883
:10A7840043F002039370704760CE002090C5002010
:10A79400F0B587B007460E461446002110226846DD
:10A7A4001D4607F0C6FC02238DF80230054B2A46ED
:10A7B40021466846CDE90476019305F089F907B08E
:10A7C400F0BD00BFB70F010008B50649064821F0E7
:10A7D4000701C1F1005202F5802205F051FE00206C
:10A7E40008BD00BFF702012064CE00200122024B05
:10A7F4000020C3F8402570470090034020B1034B6C
:10A80400800143F001031847704700BF6025010031
:10A81400084B70B5C31A0D4607499B1004465943AB
:10A824004022064806F0D9FB2B4601462046BDE8E7
:10A834007040184784CE0020B76DDBB6DC210100E0
:10A84400402373B50B4C0093041B0B460D460A4979
:10A85400A41061430646094A094806F0E9FB011EB3
:10A8640005DA30462B4602B0BDE87040184702B006
:10A8740070BD00BF84CE0020B76DDBB69D10010013
:10A88400DC21010010B5EFF31184202383F3128837
:10A89400BFF36F8F074A136823F00201DB071160CF
:10A8A40002D4012006F00BFE84F31188BFF36F8FEE
:10A8B40010BD00BFD4CE002070B500220121044693
:10A8C4000520FFF7ADFC0F4801F07CFE0E4B9842CB
:10A8D40015D101F087FE26690C49304606F030F99F
:10A8E40000280BDB012535642469084904F11C00A8
:10A8F40006F026F9002801DB0020E56470BD6FF046
:10A904000400FBE711AA00000000AD0B1C260100A7
:10A914001FB500220123CDE902236B46084ACDF876
:10A9240000D0CDF804D006F0B0FB002805DB4FF4CE
:10A9340080420023684604F0FBF905B05DF804FB8F
:10A94400BB1001000C22104B014602FB0033002017
:10A9540030B4D3E90E529863EFF31180202484F3CA
:10A964001288BFF36F8F1C6C04F0C00444F002041F
:10A974001C6480F31188BFF36F8F1DB12B4630BC6C
:10A984000248184730BC704784CE0020DC21010007
:10A9940010B4EFF31182202383F31288BFF36F8F77
:10A9A4001748016841F002040460C80707D482F321
:10A9B4001188BFF36F8F012010BC01F027BE11492D
:10A9C400D1F80C04D1F80C14C907F0D5EFF31180B9
:10A9D40083F31288BFF36F8F0B490B6C03F0C00332
:10A9E40043F002030B6480F31188BFF36F8F82F38B
:10A9F4001188BFF36F8F002010BCFFF7A3BF00BF07
:10AA0400D4CE00200050004084CE002010B1012894
:10AA140004D07047034B1B6C5B0701D1FFF792BF57
:10AA2400704700BF84CE00202DE9F0410122074683
:10AA34003449D1E8EF3FC1E8E02F0028F9D133B918
:10AA4400314932484B60CB608A6006F08CF87B1E3B
:10AA5400012B28D8012F06D12D4BD3F81C3403F039
:10AA64000303022B1FD007F00AF90546E8B9294B66
:10AA74001B78D3B102220646254BC3F80823244C85
:10AA8400DFF89480D4F81824D4F81834D20315D5F8
:10AA940003F00303022B01D0012F0FD16DB386F312
:10AAA4001188BFF36F8FBDE8F081EFF31186202387
:10AAB40083F31288BFF36F8F0125E0E7C5B13046F9
:10AAC40006F046FAD4F81835DBB2012BDAD1D4F803
:10AAD4000421002AD6D00022C4F80421D4F8042189
:10AAE4000222C4F818252022C8F88021A360C9E7EF
:10AAF4000021212004F030FCE4E70222044BC3F8D7
:10AB04000423D0E780CE002070CE0020A0CE002009
:10AB140000500040AEE4002000E100E008B5074822
:10AB240006F0F0FF38B10648FFF726FE0448FEF7AA
:10AB340009F9002008BD6FF01200FBE704220100B0
:10AB440049AB00000A2838B50446074D04D1AB6868
:10AB54000D2128465B689847AB6803485B68E1B2FF
:10AB64009847204638BD00BF0422010008B50221E1
:10AB7400034A044806F003F96FF0850008BD00BFDE
:10AB8400E3310100B0240100F0B585B00446456806
:10AB94004FF4004240F2E73000216B6C00AFC3FB7E
:10ABA400020151EAC3332FD000234FF47A72FDF728
:10ABB400C7FA6FF00103181A4FF0FF3363EB01017A
:10ABC40004F0CAFB636820469B6A9847064600BBAC
:10ABD40020462B6B98476C4688B06A466F4BC2E997
:10ABE40005304FF4007393836D4B42F8103F4FF4DC
:10ABF400E25133466B48FEF761FC6FF01505A5463C
:10AC040028461437BD46F0BD6FF001004FF0FF3108
:10AC1400D6E7286AE0B9A42265683A7195F840201D
:10AC24002369002A0BBFA621A721022204227971DD
:10AC34001A702B6A5BBB204606F056FA002838D0FF
:10AC44000121594A574806F09AF86FF00405D7E7EE
:10AC540095F82410EB8C0126D0F810C0DA07DCF844
:10AC6400005054BF43F4B01383F4D01323F4801280
:10AC74008E40DB07D0F808E04CBF3543B543CCF831
:10AC84000050DEF800309847051EC4DAB8E700210A
:10AC94002035212004F060FB0121284606F08FFABC
:10ACA4000021212004F058FB0021284606F087FAF1
:10ACB400C1E748F2D5023A81D9226368BA7293F89F
:10ACC4003C300622FB7242F2DB032046BB8107F1D3
:10ACD4000801012306F0F6F90028B1D14DF2403203
:10ACE40063683A8193F83A202046BA72DA22FA72FB
:10ACF40093F83F2007F10801002A0CBF1222022218
:10AD04003A73A8227A7393F83B300722BB7301236A
:10AD140006F0D8F9002893D16268204692F83D30B5
:10AD240007F10801603B3B7292F83E300222002B8F
:10AD34000CBFC023C8237B72012306F0C3F900288B
:10AD44007FF47EAF6368204693F8413007F1080131
:10AD5400002B15BF8B231423AD228D227B7233234A
:10AD64003A72BB720322012306F0ACF900287FF487
:10AD740067AF012302222046391D06F0A3F90028FB
:10AD84007FF45EAF8021204606F0BAF9054600281C
:10AD94007FF456AF204606F09BF931E7FC31010001
:10ADA40003000001B0240100153201002DE9F3472E
:10ADB400B3F808C0B3F804900646CC451C460A9F75
:10ADC400D0F804A009D2404A0121404805F0D7FF39
:10ADD4004FF0FF3002B0BDE8F087B3F806E01B681F
:10ADE4000EFB09F5ED109D4228BF1D4607B10DB9B4
:10ADF400374AE9E7CC4501D9364AE5E712F0070CB2
:10AE040001D0354AE0E7CBB29AF84110C2F3C70843
:10AE1400A1B39AF83810B946E246194401F00F0379
:10AE2400C1F3031141F010018DF800308DF80110C9
:10AE3400E2885FFA8AF3B3EBD20F01D30020C9E7AB
:10AE4400434463F04F038DF8023003220123694623
:10AE5400304606F037F903460028B9D14946304652
:10AE6400A28806F02FF90028B2D1A3880AF1010ABA
:10AE740099447B199945DBD9184AA5E720218DF817
:10AE840003304B44013B8DF804302223ADF800100D
:10AE940021218DF8053002EB0E03DB10013B8DF808
:10AEA40002108DF807300822012369468DF80680C8
:10AEB40006F008F9034608B1094A85E72A463946E7
:10AEC400304606F0FFF885E732320100B024010075
:10AED4004E3201006E3201007F32010092320100D5
:10AEE400A932010038B545682B69B3B1103528463D
:10AEF40001F0C0FF044680B90146284601F07EFFF8
:10AF0400084B98420BD122462846074901F04CFFD2
:10AF1400224605213120FFF783F9002038BD6FF068
:10AF24000400FBE70000AD0B31AF0000430970B52E
:10AF340007D10B4B596821B101250C68094E854096
:10AF440001B970BD8A682A4002D030464B689847E0
:10AF54001CB1236821461C46F2E72346FAE700BFEA
:10AF6400D8CE0020F02101002DE9F04340F206354F
:10AF74004668D00648BF0320337B02EA050558BF64
:10AF8400C2F3401087B001F01F07B5F5837F144664
:10AF940047EA43178DF8030041D00FD8062D18D087
:10AFA40007D8B5B1022D3CD06FF0150007B0BDE84D
:10AFB400F083B5F5807FF7D101250AE040F2022243
:10AFC400954230D0B5F5407F2FD0B5F5007FEBD159
:10AFD400022522032BD5012372688B4093603269CA
:10AFE40062BB07F01F037F0975D13D4A84F48031A9
:10AFF40002EB8302D2F80032C1F30041C4F34044AF
:10B0040023F4E16344EA410423F007031C4344EAC4
:10B01400800444EA0524C2F800420020C6E707255C
:10B02400D7E70425D5E70525D3E70325D1E763034F
:10B0340041BF012372688B40D360D0E71036394694
:10B0440030460DF1020201F0BDFE14F4403F80468B
:10B054000CD13946304606F0D0FA224B9845DCD163
:10B0640030469DF8021001F013FFD6E74FF00009B7
:10B0740001AB3946304603AACDE90439CDE901993B
:10B08400CDF80C9001F0FCFC164B98428CD114F4D2
:10B09400003315D09DF8033084F48034C4F30044A5
:10B0A4008DF80E3039464B46304603AA8DF80C50C5
:10B0B4008DF80D4001F0E0FD0A4B9842CDD073E7C6
:10B0C400CDE9043339460DF10303304603AA039353
:10B0D40001F0D6FCF0E7803352F82330FFDE00BFE6
:10B0E400002584400000AD0BF0B5406801F01F045A
:10B0F400057B87B044EA45140569002D5FD0B2F59D
:10B10400001F00F1100506D12146284606F077FA03
:10B11400002007B0F0BD0027B2F5800F01AE019703
:10B12400776037D1B3F1007F14BF052304238DF872
:10B1340004300023CDE904630393836823FA01F107
:10B1440011F0010118D1B2F1A07F15D104F01F0351
:10B15400620903F1800338D11D4A52F82330DB071A
:10B164000AD40DF1030632462146284601F02AFE90
:10B17400184B984219D002962146284603AA01F09A
:10B184007FFC154B98421DD101222146284601F02F
:10B1940097FEBDE7B3F1C06F05D0B3F1007F14BFD4
:10B1A40001230223C3E70323C1E73146284601F004
:10B1B4007BFE094B9842DED06FF00B00A9E76FF0DD
:10B1C4008500A6E76FF01500A3E751F82330FFDEF2
:10B1D400002584400400AD0B0000AD0B08B5CA0780
:10B1E40043680AD4C1F34201012909D002290ED0CF
:10B1F4000121094A094805F0C2FD6FF0150005E078
:10B204004FF0CC721B680020C3F8242508BD4FF012
:10B21400C8621B68F7E700BFE4320100682401003C
:10B22400F8B5446800AFE369054606699847206AA3
:10B2340006F02BF800281FDB33462046124A04F19F
:10B24400080101F083FF114B984217D06C4688B077
:10B254002B686A460E49C2E905134FF400739383C1
:10B264000C4B42F8103F0C4800234FF4E251FEF718
:10B2740025F96FF00400A546BD46F8BD204601F04F
:10B284009FFF0020F8E700BFDDB200000000AD0B17
:10B29400F6320100030000016824010070B544681F
:10B2A40023682046D3F80855D3F80C6501F098FFBD
:10B2B4003146284602F02AFA0546206A05F0E5FFE1
:10B2C400204601F07DFF034B9D4214BF6FF00F0039
:10B2D400002070BD0000AD0B0378012B08D0022BB9
:10B2E40008D04BB9054B0B6201F1100003F0FCBC14
:10B2F400034BF8E7034BF6E7034BF4E70000AD0B11
:10B304000100AE0B0200AE0B0100AD0B2DE9F04FB6
:10B314008DB002AFBA6014221D46D0F804B0D0F844
:10B324001080BBF8183006460C46B8180021D8F82F
:10B3340024A0FB6006F0FDFE7D754FF0FF324FF058
:10B34400FF33404603F0F4FC08F110037B604FF038
:10B3540000090022002308F1100003F0E9FC4D4627
:10B36400BB68994501D300243FE0207A020700F12D
:10B37400AA80BB6809F10109994521680AD28307AB
:10B3840008D4237D80EA030202F0010203F00403DF
:10B394001A4307D025B901F06043B3F1005F36D0FA
:10B3A400002300E001236268D7F80CE005EB020CEF
:10B3B400F4451ED96C468CB0316802ABDA61FA6888
:10B3C4004248C3E9082140F203521A851A46C3E9E8
:10B3D40005053F4B42F8103F00234FF451513D48BF
:10B3E400FEF76CF8A5466FF01B04404603F07CFCA6
:10B3F40022E0C00705D40AEB05003B6006F08CFE92
:10B404003B6862682A4495B2002B47D1CDB9002528
:10B4140023683B626368227ABB6102F001013975DB
:10B42400BBF82410994210D22B4A009129480121DB
:10B4340005F0B8FC6FF01B0420462C37BD46BDE870
:10B44400F08F2B46C7F820A0E5E782F00202C2F392
:10B4540040025846520107F1140101F0DFFE1F4B70
:10B46400984205D00B3398420CD16FF00F04BCE71F
:10B474004FF480420023786803F05AFC28B1304628
:10B48400FFF70CFF6FF00404AFE7D8F82030134A3D
:10B494009342F7D1237ADB0702D400250C345FE70B
:10B4A4003B6A9A45F9D1234608E0A91AD8688DB2B7
:10B4B4001AFA81F13B6006F02FFE3B685A680C3B98
:10B4C4009542F2D2E9E76FF085048EE71633010066
:10B4D4000600000168240100E13301000000AD0B07
:10B4E4002DE9F04740F2FF16594FDFF868C1DFF845
:10B4F40068E100EB8101814202D10020BDE8F087C0
:10B50400046814F4804FC4F3C325C4F3080340F063
:10B514008C80640CB34208BF4FF0FF337D5D192C5F
:10B5240000F28680DFE804F00D13191C1F251C842B
:10B534008484843660848484848484848484637866
:10B544007B7EC2F80C355C1C5BD10430D3E7C2F8B7
:10B5540014355C1CF9D000245CE0C2F80835F2E72D
:10B56400C2F81035F5E75C1CC2F80835EDD00024AC
:10B5740004E05C1CC2F80C35E7D001245FEA5318E0
:10B5840059D14FF00109DFF8CC8009FA03FAC8F861
:10B594000CA008E0C2F80835002DDAD15C1CD4D028
:10B5A40000240625A146D0F800A00AF40048B8F10A
:10B5B400000F1CBF4FF00009012403F01F085B09B2
:10B5C4003FD10CEB8808D8F80032CAF3412A03EAC9
:10B5D4000E0343EA8A0343EA052343EA090343EAE1
:10B5E4004403C8F80032B0E7C2F80C35D4E7C2F817
:10B5F4006035B3F1FF3F0468A7D0C4F30044002CC6
:10B60400BBD05C091AD10124DFF8488004FA03F99D
:10B61400C8F80890A146C6E7C2F86435E9E7C2F85D
:10B624006835E6E7C2F86C35E3E76FF0150065E7C7
:10B634006FF0850062E70023DB60FFDE00239B6080
:10B64400FBE7002308F1800853F82830F5E700BF32
:10B654003F34010000258440F0F8FCFF2DE9F74356
:10B6640006464FF00008002201210820FEF7D8FD0D
:10B674000820FEF7A5FD776835693C684146C4F8A3
:10B6840000852E60D7F80C9001AA484605F00DFEFF
:10B69400002837DB019BD9F8002019791868FFF7D7
:10B6A4001FFF00282EDB6B7A3169012B03D0032B9B
:10B6B40026D14FF01008AB7A032B21D195F80BC09B
:10B6C400BCF1000F02D0BCF1010F19D12A7A12B1DA
:10B6D400022A15D10E226B687068B3F5164F006804
:10B6E4007BD02DD8B3F5165F7AD016D8B3F5966F04
:10B6F40078D00AD8B3F5967F77D0B3F5167F77D094
:10B704006FF0850003B0BDE8F083B3F5166F72D017
:10B71400B3F5965FF4D15C4B3EE0B3F5E14F6DD0E9
:10B7240007D8B3F5615F6BD0B3F5964FE8D1574BAB
:10B7340032E047F6122E7345E2D14FF400032BE0BA
:10B74400B3F5613F5ED013D8B3F5963F5DD009D809
:10B754004DF6C02E73455AD0B3F5614FD0D14FF496
:10B764006B0319E0B3F5E13FCAD14FF0EB7313E07B
:10B77400B3F5612F4ED009D8DFF814E173454CD0EE
:10B78400B3F5E12FBCD14FF0E86305E0DFF804E145
:10B794007345B5D14FF08053C0F82435736848EA37
:10B7A4000C081B6842EA0802C3F86C250B1DD5E996
:10B7B400010183E803007B6899073DD505F1180072
:10B7C40000F0B2FF344B98422AD034480121344A65
:10B7D40005F0D5FA6FF0040094E74FF41D03DBE79E
:10B7E400304BD9E74FF49E23D6E74FF4A033D3E789
:10B7F4004FF41C33D0E74FF41D23CDE72A4BCBE79E
:10B804002A4BC9E74FF06C73C6E7294BC4E74FF4E2
:10B814006503C1E74FF07063BEE74FF08063BBE799
:10B82400287E04F10C0204F5907105F041FE01201C
:10B834002B7E984000F068FE0823C4F800353B7A5C
:10B8440053B9C4F81031D4F810316B69C4F83435E5
:10B854000123C4F8383523607B6800209A075CBF55
:10B864004FF48073C4F804337B68DB0644BF4FF4A1
:10B874008003C4F804332B69C4F844350123C4F8A5
:10B884004805A360E3603DE700B0130000A04E004C
:10B8940090D0030040420F000000AD0BC024010013
:10B8A400473401000050270000C0750000F03A0042
:10B8B40000903A012DE9F04104460D46076906F06F
:10B8C400DEF94FF02008B0B92C4B1B789BB16426ED
:10B8D400606805F018FDF0B9012005F0E7FD013EB0
:10B8E400F6D10021212003F037FDF0E786F311881B
:10B8F400BFF36F8FF5E7EFF31186314688F31288B3
:10B90400BFF36F8F606805F0FEFC80B986F3118881
:10B91400BFF36F8FEFE7EFF31186314688F3128898
:10B92400BFF36F8F606805F0EEFC0028DED03B6942
:10B934001D70626838691368C3F844050120C3F8B0
:10B9440048050020C3F82001D3F82051C3F858015A
:10B954005268D3F85801D20608D5082062681268E4
:10B96400C2F800054FF48002C3F8042301229A6050
:10B9740081F31188BFF36F8FBDE8F081AEE400203E
:10B984000123834070B5DC430B4AD2E8EF1F01EA80
:10B994000405C2E8E65F002EF7D14FF480328240FE
:10B9A4000648C0F80823BFF35F8FBFF36F8F0B42C5
:10B9B40014BF0120002070BDE8CE002000500140DB
:10B9C40070B40E4922F07F46D1E90034D01AC3186E
:10B9D40044F10004C1E90034A6F50013B3F5400FA7
:10B9E40009D2074B1B681A0A1B069C19054B42F126
:10B9F4000005C3E9004570BC03F032BE58CC0020FA
:10BA0400ECCE002060CC0020D9B101230D4A834044
:10BA1400D2E8EFCF4CEA030CC2E8E1CF0029F7D11A
:10BA24004FF48033084A8340C2F80433074BD3E809
:10BA3400AF3FC340DB0742BF4FF40012044BC3F8CF
:10BA440000217047E8CE002000500140E4CE0020E1
:10BA540000E100E00D4B1868010A0006BFF35F8F98
:10BA64000B4BD3F80435181841F10001B3F5801FCE
:10BA74000AD2084BD3E90023904271EB030303D2AB
:10BA840010F1807041F10001704700BFECCE00203E
:10BA94000050014060CC00202DE9F04F85B01646DF
:10BAA4001F4604469DF840A0FFF76AFF0190FFF788
:10BAB400D1FFB04271EB070352D23B4B301A67EB14
:10BAC4000101984271F100014DD2384B03EB04138C
:10BAD400D3E902239F4208BF964258D04FF48038DE
:10BAE400334908FA04F8204626F07F4BC1F848830E
:10BAF40005F050FC4FF00309584604F15005AD0021
:10BB0400ADB205F1804504F5A87305F5A835029397
:10BB1400029A20F07F4341F82230C1F84483D1F8DF
:10BB24000435244AC01A033820F07F4090422ED9AD
:10BB3400286868B1D1F80435A3EB0B0020F07F40EE
:10BB4400B0F5000F039322D9204605F023FC039B94
:10BB5400BAF1000F07D109EB030009F10109D7E796
:10BB6400BAF1000F09D06FF0150520460199FFF7CF
:10BB74004BFF284605B0BDE8F08F01230E4AA340D1
:10BB8400D2E8EF0F1843C2E8E10F0029F8D10749C2
:10BB94000E982301C8500F9B01EB04120025C2E943
:10BBA40002675360E1E700BF0100800048CC002039
:10BBB40000500140FDFF7F00E4CE00207FB500254A
:10BBC4004FF0FF304FF0FF31194C1A4B0226C4F8E6
:10BBD4000833C4F84833184BC4F80855C3E90201C4
:10BBE4004FF480334FF40012C4F80433134B012193
:10BBF400C4F804631520C3F880212A46FEF710FB1D
:10BC04001520FEF7DDFA01230D4AA36023601360BB
:10BC14000C4B0D4A009328460023CDE90155FFF74C
:10BC24003BFF3046FEF700FF284604B070BD00BF5E
:10BC34000050014003000F0048CC002000E100E068
:10BC4400E8CE0020C5B90000FFFF7F002DE9F743CF
:10BC54002E4BD3F8042390070BD5D3F8042142B11B
:10BC64000022C3F804212A4AD3F8043113680133AB
:10BC74001360264AD2F80433D90326D5254BD3E8DA
:10BC8400EF1F21F00100C3E8E40F002CF7D1CB072C
:10BC940002D4D2F84031C3B100251C4CC4F8405141
:10BCA400D4F84031FFF7D6FEEFF31182202383F35B
:10BCB4001288BFF36F8F184BD3E90267B042B941C2
:10BCC40006D282F31188BFF36F8F03B0BDE8F0830F
:10BCD4004FF0FF38D3E900104FF0FF391D60C3E97E
:10BCE40002894FF48033C4F84833C4F84051D4F87F
:10BCF400403182F31188BFF36F8F0029E5D00090A3
:10BD040032463B4628468847DFE700BF00500140E3
:10BD1400ECCE0020E4CE002048CC002030B5431CFB
:10BD2400124C85B005D08442A8BF0446012CB8BF8C
:10BD34000124FFF78FFE0E4B0C4DD3E90013401A7C
:10BD4400B0F5000F0FD22218AA4228BF2A460020BD
:10BD540052180849CDE90100009143F10003FFF7AF
:10BD64009BFE05B030BD2A46F1E700BFFFFF7F0010
:10BD740058CC0020C5B9000008B5FFF76BFE024B94
:10BD84001B68C01A08BD00BF58CC0020F0B50F4B8B
:10BD940001461A680E4B0B25002618461F46B8426A
:10BDA40001D3013D04D11846013A19605A60F0BD2F
:10BDB40004688C42FBD03CB14468141BA642BCBF4F
:10BDC400034626460830EAE70346ECE760CF002046
:10BDD4006CCF00200020054BC3E90000044BD3E8DE
:10BDE400EF2FC3E8E10F0029F9D1704764CF002099
:10BDF40060CF00202DE9F04F87B005460E4605F0D0
:10BE04007AFE20B96FF06D0007B0BDE8F08F06F040
:10BE14006FF833680446002B0F4604D103F01AFA76
:10BE24006FF00A00F0E7BCBF4FF0FF33336001222C
:10BE3400002101A805F017FFE8460595EFF3118BE3
:10BE4400202383F31288BFF36F8F06F083F9DFF8A2
:10BE540028A1DFF828915AF80000FFF797FFD9F8D6
:10BE6400003042689A426ED10023454D00936B68BE
:10BE7400002B6FD1C5E900888BF31188BFF36F8F56
:10BE840033685A1C6BD04FF4004E40F2E730002167
:10BE940023EAE37C4FF47A720023CCFB0E01FCF717
:10BEA4004FF902460B4601A802F042FFEFF3118B53
:10BEB400202383F31288BFF36F8F00222B685BB1BA
:10BEC400434556D10099002A4DD16A6829609A42A7
:10BED40000D169600023009306F03CF95AF8000091
:10BEE400FFF754FFD9F8003043608BF31188BFF398
:10BEF4006F8F05F000FE002884D035686B1C27D0B6
:10BF040005F0F6FF4FF47A7EA0FB0E320EFB012102
:10BF1400A4FB0E420EFB0722DB0BE40B43EA414376
:10BF240044EA42441B1B4FEAD1314FEAE57C61EB02
:10BF3400D231ED1A6CEB010CBCF1000FB8BF002537
:10BF440035602DB96CE743608BF31188BFF36F8FB5
:10BF5400002059E7C3F80080C5F804808CE74FF04F
:10BF6400FF3213469FE711606968994208BF6A600F
:10BF7400B0E71A461B68A2E70800000060CF002063
:10BF840064CF0020024600B506F0E4F8014B1A50D5
:10BF94005DF804FB0C00000030B404682CB10C4BB9
:10BFA4009C4202D370339C4209D30A4B1C78062C62
:10BFB40009D8651C1D70064B03EB0413036000686D
:10BFC40030BC05F050BE6FF00B0030BC704700BFB2
:10BFD400F0CE0020A3E4002038B505460A4BD3E890
:10BFE400EF1F0131C3E8E21F002AF8D1074B1C6898
:10BFF40004B938BD6369AB4201D005B113B9201D42
:10C0040002F072FE2468F3E760CF002064CF0020C2
:10C01400014600220023014805F0ECBDBCCF0020FE
:10C024000146014805F0F0BDBCCF002001460022C6
:10C034000023014805F0DEBDD0CF002001460148B1
:10C0440005F0E2BDD0CF002070B50546054C064E84
:10C05400B44200D370BDD4E900312846984708346F
:10C06400F6E700BFC8370100C8370100014801F0F6
:10C0740033BF00BF4DC00000014610B5064801F0B3
:10C0840031FF034630B1BDE810400121034A0448A2
:10C0940004F07EBE10BD00BF133301008A340100DA
:10C0A4008824010008B5B0B90B4805F0CBF90B485A
:10C0B40005F0C8F90A4805F0C5F9094805F0C2F9C0
:10C0C400074805F0BFF9064805F0BCF9BDE808408B
:10C0D400034805F0B7B908BDB0340100CF340100FE
:10C0E400BF36010010B50749074805F0B4F9044606
:10C0F40028B101210346054A054804F049FE2046BB
:10C1040010BD00BF65C30000E4CF0020F53401007A
:10C11400A02401002DE9F041DFF8D4810D46D8F8C0
:10C12400704000AF072C00F008065BD0132C00F021
:10C13400A080052C40F0B980D8F854806D496E4831
:10C1440005F085F918F4805F41D06C496A4805F020
:10C154007EF9172418F4006F04D06949664805F085
:10C1640076F9182418F4007F0ED06649624805F069
:10C174006EF9654B18F4004F9B6B04D00121634AA0
:10C184005D4804F005FE192418F4806F04D060495A
:10C19400594805F05CF91A2418F4807F19D05D49D8
:10C1A400554805F054F91B24EB69002E40F09B80A0
:10C1B400C3F3080222B96FEA53236FEA4323EB6106
:10C1C40029462046FDF742FCBD46BDE8F081162411
:10C1D400C0E718F4005FE7D04F49474805F037F946
:10C1E4001C24E1E7D8F85C4043484C4905F02FF99A
:10C1F400600606D5D8F868300121494A3E4804F063
:10C20400C7FDE10705D547493B4805F020F9262439
:10C21400CAE7A20705D54449374805F018F9272489
:10C22400C2E7630705D54149334805F010F92824CE
:10C23400BAE7200705D53E492F4805F008F9292417
:10C24400B2E7E10605D53B492B4805F000F92A245D
:10C25400AAE7A20605D53849274805F0F8F82B24A3
:10C26400A2E723063DD53549234805F0F0F82C24F0
:10C274009AE7D8F86C8032491F4805F0E8F818F0BE
:10C28400020F03D02F491C4805F0E1F818F0010F04
:10C2940003D02D49184805F0DAF818F0040F83D0BC
:10C2A4002A49154805F0D3F87EE7294A294BE84680
:10C2B4008AB00F2CC8BF13466A462749103CC2E90E
:10C2C40005134FF400731384244BD46142F8103FD8
:10C2D40000234FF411510848FDF7F0F80024C54637
:10C2E40062E7252460E723F4FF7323F0010366E784
:10C2F400E4CF0020AA2F0100A0240100C02F0100D8
:10C30400242E0100D12F010000ED00E0EA2F0100EE
:10C31400FF2F01001A300100842E01002F35010087
:10C3240048350100583501006E3501008C35010097
:10C33400A7350100C4350100D9350100F3350100EA
:10C344000636010020360100503601007E36010019
:10C35400473001003230010028310100040000019F
:10C3640000B5104B89B05A6AD86C00929A6A20F0D2
:10C3740005000192DA6A694602921A6B03925A6BBB
:10C3840004929A6B0592DA6B06921A6C1B6D0792F3
:10C394009B0748BF40F00400FFF7BCFE09B05DF8FE
:10C3A40004FB00BFE4CF00202DE9F0411F46164BEB
:10C3B400044693F800800D461646A2B0B8F1000F6B
:10C3C40015D1684604F0A6FD3A4631462846289B16
:10C3D400A0470446684604F09EFDB8F1000F02D061
:10C3E4000A4802F045FC204622B0BDE8F0814FF037
:10C3F400FF324FF0FF33054802F0C2FB0028E0D0C3
:10C404006FF08304EFE700BFAEE4002064C70020B0
:10C41400002300B589B0CDE9063303AB04930423AC
:10C4240003900593A9B10B6806934B680793022305
:10C43400111E18BF01210848CDE9002140F2F53151
:10C4440004AA00F00BF80028B8BF012009B05DF879
:10C4540004FB0123ECE700BF0501004010B4B1F573
:10C46400004F029C0ED2042B0CD8042C0AD82404AE
:10C4740044EA0364134644EA0102014610BC03483B
:10C48400FFF792BF6FF0800010BC7047217C000062
:10C4940030B50468ACB1B4FA84F30122C3F11F03CC
:10C4A400DBB29A4024EA0202D0E8EF5FA54204D14D
:10C4B400C0E8EC2FBCF1000FF6D1EAD102480B70B2
:10C4C40030BD0248FCE700BF0000AD0B0200AD0B1D
:10C4D40010B50368CB40DB0710D401238B400268FE
:10C4E40043EA0201D0E8EF4F944204D1C0E8EC1FC4
:10C4F400BCF1000FF6D1F2D1014810BD0148FCE7B0
:10C504000000AD0B0400AD0B014BC3F804057047EC
:10C5140000700140F7B5044618B1012822D003B0D9
:10C52400F0BD0222264B0646C3F808230122DA6036
:10C53400C3F80401D3F80431012342F21075204FEB
:10C544008DF80730D4B1012CE9D1D7F80C3403F4B9
:10C55400803386BB002BE2D0012004F0A7FF013D0D
:10C56400F3D1DCE70022164B0DF10706C3F80803EC
:10C574005860C3F80021D3F80031DDE7D7F8183448
:10C5840003F480333EB9002BC9D0012004F08EFFA0
:10C59400013DF3D1C3E7D7F8182402F00302327047
:10C5A400002BBCD09DF807000128B8D104F07EFF11
:10C5B400013DC7D1B3E7D7F80C2402F00102EEE73E
:10C5C40000500040044B1A7922B9012218601A71F4
:10C5D400024870470248704758D000200000AD0B55
:10C5E4000C00AD0B08B5074B1B6833B10520FDF7F4
:10C5F40009FE10B90520FDF7E3FD0122024BC3F843
:10C60400182508BD58D000200050004010B510B1C6
:10C61400012848D010BD294BD3F81814D3F8182496
:10C62400C90324D502F00303022B05D0012B02D049
:10C634000020FFF76FFF0123204A0220C2F81835BB
:10C6440008224FF48273002103F1804303F5A043D1
:10C6540019601C68012402F1804202F5A0421460B2
:10C66400174A12681AB3154BC3F80403D2E7D3F878
:10C674001424D207DFD5D3F81C2402F00302013AB4
:10C68400012AD5D80E4A12681AB10222C3F804232B
:10C69400C0E7D3F80421002AFBD00022C3F8042108
:10C6A400D3F80431B6E700224FF48073CBE71A685D
:10C6B400002AFCD019601B68ACE700BF00500040A2
:10C6C40058D0002010B5164BD3F8002152B10020E9
:10C6D400C3F80001D3F800210122C3F80823114B49
:10C6E4001B6898470E4BD3F8042182B10022C3F88B
:10C6F4000421D3F80421D3F81824D3F818240221F0
:10C7040002F00302012A03D1C3F818159A6010BD80
:10C71400C3F80813034B0120BDE810401B681847F9
:10C724000050004058D0002001460148FFF7B0BE39
:10C734000CC60020036803F01F025B090260024874
:10C7440018BF0020704700BF0025844070B4322415
:10C754000279184B624352FA81F2083233F81240DC
:10C76400E10524D5C4F3432124F4F85423F81240FA
:10C7740064240026027904FB02340E3434F8025F88
:10C7840015F4807F03D0C5F34325A9420FD00136A9
:10C79400202EF3D164240025624302EBC1029D5094
:10C7A400027904FB023070BC5830FFF791BE70BCB4
:10C7B400704700BF10C6002032235843034B50FA81
:10C7C40081F1083133F81100400B704710C6002086
:10C7D40032235843054B50FA81F1083133F81100E4
:10C7E40080F00200C0F34000704700BF10C6002074
:10C7F40032235843044B50FA81F1083133F81100C5
:10C80400C0F34010704700BF10C60020024611F06C
:10C81400010004D003490B6A13600B6203B90020C2
:10C82400704700BF00258440F0B50546002001266E
:10C83400044607468C420BD1114BD3F87C2132B10C
:10C844000022C3F87C21D3F87C3140F00040F0BDD5
:10C85400E3B29B0003F580729B0806FA03F31D42C2
:10C864000BD002F1804202F54432D2F800C0BCF190
:10C87400000F02D01760126818430134DAE700BFD2
:10C88400001003402DE9F3470546544B296DD3F8B6
:10C894000403C0B240F00040FFF7C6FF061E18DADA
:10C8A40000236846E96D00934FF00108FFF7AEFFDF
:10C8B40095F85C30DA0758D4296D4FF00040FFF743
:10C8C400B3FF6846E96DFFF7A1FF0028F0D126F019
:10C8D40000460124002E68D102B0BDE8F08794FA26
:10C8E400A4F4B4FA84F4E00804F1080335F81390CE
:10C8F40004F007021DF8003008FA02F223EA0203EA
:10C904000DF8003001A80194FFF714FF019B4FEAD2
:10C914009901803350F82370C9F3820A4B07D1463A
:10C92400C7F3014725D552462846214604F021FE87
:10C9340001A80194FFF7FEFE019BFFB2803350F87B
:10C944002330C3F301439F4207D10021204604F062
:10C9540001FE3946204604F0FDFD01A80194FFF7CD
:10C96400E9FE019B08FA03F30362009C002CB6D194
:10C97400A2E7022F0DD10321204604F0EBFD0AF0BB
:10C984000503012BE9D14A462146284604F0F1FD6E
:10C99400E3E70221204604F0DDFDBAF1030FF2D0F3
:10C9A400032FDAD1BAF1020FECE796FAA6F3B3FA41
:10C9B40083F304FA03F29B0003F1804303F5443349
:10C9C400D3F8101526EA0206D3F810252846C2F338
:10C9D4000142C1F3042104F0CCFD7BE700100340C5
:10C9E40032222DE9F3410379214F534353FA81F362
:10C9F400083337F813300546DB070C46CEB234D57E
:10CA040004F0D4FD95F8048021464046FFF7F0FE7B
:10CA140060B121464046FFF7CFFE2A6800B202EB20
:10CA240080030022C3F81025C3F8102528462146A8
:10CA3400FFF78CFE32222B7901A802FB0366002348
:10CA4400083627F816300194FFF774FE019B00EBBB
:10CA54008300D0F80022074B134043F00203C0F8D0
:10CA64000032054802B0BDE8F0810448FAE700BF8F
:10CA740010C60020F0F8FCFF0000AD0B0400AD0B65
:10CA84002DE9F043D2F8009004460D46164685B0D1
:10CA9400B9F1000F34D032220079DFF8D08142435B
:10CAA40052FA81F2083238F81230CFB29B0703D51C
:10CAB400FFF79EFE00283BD100230DF10F02CDE9C4
:10CAC40000338DF80E308DF80F300DF10E014B460A
:10CAD400284604F0F6FC3221237901FB0373083362
:10CAE40038F8132022F0020228F81320237901FBDE
:10CAF4000377083738F8173043F0010328F8173064
:10CB04007368002B43D04FF0320C22791F780CFB52
:10CB140002F2D3F804E052FA85F2544B083233F8A7
:10CB24001200E9B210F0020F04D0BEF1000F18D0C9
:10CB34004F482FE020F4604020F0200023F812003A
:10CB4400BEF1000F0DD0032FF2D87268506822682E
:10CB540090F800E002EB8E02FFB9C2F81075C2F83B
:10CB640010754FF0320C22790CFB0212083233F8A4
:10CB7400120020F01C0023F8120022790CFB021191
:10CB8400083133F8112042EA870223F81120B368F0
:10CB940063BB384805B0BDE8F083D2F8108528F0AF
:10CBA4000308C2F81085226802EB8E00D0F8102525
:10CBB40022F4473222F44072C0F810252A02D0F839
:10CBC400108502F4F85242EA074242EA0802C0F829
:10CBD400102522790CFB0212083233F8120040EAC5
:10CBE4004E3040F0200023F81200BAE72946D3E97A
:10CBF40000872046FFF7AAFDB8F1000FC9D06423CF
:10CC040020791A4E4343F218F358984504D15368D7
:10CC14009F4201D100210CE0642303FB00600DF16D
:10CC24000F015830FFF734FC124B9842B2D19DF8F3
:10CC34000F1064222379534303EBC10346F80380A6
:10CC440023795343322203EBC10333445F602379D6
:10CC5400534353FA85F3083336F8132042EA41224A
:10CC640042F4807226F8132093E700BF10C6002018
:10CC74000400AD0B0000AD0B2DE9F04305460C4656
:10CC84001F4685B09AB306793046FFF7A1FD20B15F
:10CC940021463046FFF7ACFD80BB32235E43DFF80C
:10CCA400FC9056FA84F6083639F816305FFA84F8A0
:10CCB40013F01C0F02D05378012B1FD001238DF8E1
:10CCC4000F3000232046CDE900230DF10F01931C02
:10CCD400013204F0F6FB32222B7902FB038808F1BF
:10CCE400080839F8183043F0030329F81830002FE6
:10CCF40051D021462879FFF76BFD18B1284805B0BB
:10CD0400BDE8F0833E782B68244903EB8603C3F81F
:10CD14001005C3F8100532202B794FEA860C4343E3
:10CD240053FA84F3083331F813E0E2B22EF4604E80
:10CD34002EF0200E21F813E097F801E0BEF1000F69
:10CD440029D02B68BF789C44DCF810354FEA0E4E8E
:10CD540023F4981323F4F853CCF81035230203F486
:10CD6400F8530EF4403E3F05DCF8108543EA0E0309
:10CD740007F480173B4343EA0803CCF810352B79BA
:10CD840000FB0322083231F8123043EA463343F001
:10CD9400200321F812300348B1E700BF10C6002079
:10CDA4000400AD0B0000AD0B30B564250479044BD1
:10CDB40005FB0434A160017905FB0133DA6030BD61
:10CDC40010C6002038B505790C462846FFF710FD3B
:10CDD40058B132235D43064B55FA84F4083433F8D2
:10CDE400143004485B0B137038BD0348FCE700BFE4
:10CDF40010C600200000AD0B0400AD0B2DE9F0417E
:10CE0400064607796420184D00FB075898F86040DF
:10CE140044BB404621464022103005F08AF92146A1
:10CE24003068D8F850608E4212D10023C0F87C31AB
:10CE3400D0F87C3140F30730FDF7C2F9642303FBDB
:10CE440007550123094885F86030AB65BDE8F081DA
:10CE5400CBB29B0003F580727C2B04BF84508358B3
:10CE64000131E0E70248F1E710C600200000AD0BF5
:10CE74000C00AD0B64210279044B01FB023393F8DF
:10CE84006000003818BF0120704700BF10C60020A2
:10CE940064235422007913FB002302481844FFF74B
:10CEA40017BB00BF10C6002064235422007913FB73
:10CEB400002302481844FFF7EBBA00BF10C6002055
:10CEC40073B503680D46D3F8041306460029A4BFBE
:10CED4004FF00041C3F80413047929462046FFF7B4
:10CEE40087FC00B329462046FFF772FCD8B12946D7
:10CEF4002046FFF761FC002501B23468890001F582
:10CF04008073E550E35833680B44D3F8101541F0AF
:10CF14000101C3F8101522B1012332688340C2F81D
:10CF2400043302B070BD32235C43104B54FA85F4D1
:10CF3400083433F81430C3F38203042B11D0052BC7
:10CF440011D001A80195FFF7F5FB019A0369D340BD
:10CF540003F00103991C284602B0BDE8704004F0B8
:10CF6400F9BA0321F7E70221F5E700BF10C6002054
:10CF74000148FFF787BC00BF74C6002070B5084C99
:10CF84000E462379154643B92A20FDF719F90123E2
:10CF9400044823712660A56070BD0348FCE700BF08
:10CFA40060D000200000AD0B0C00AD0B002330B5A9
:10CFB4000D4A50F8234003F5A2710133082B42F8BF
:10CFC4002140F6D10023084A00F11C0103F5B27494
:10CFD40051F8045F0133082B42F82450F6D1036C56
:10CFE400C2F8043330BD00BF00A0024038B50024AD
:10CFF400154D2A20C5F81045C5F81445C5F818453F
:10D00400C5F81C45C5F82045C5F82445C5F828458C
:10D01400C5F82C45C5F89045C5F89445C5F898451C
:10D02400C5F89C45C5F8A045C5F8A445C5F8A8456C
:10D03400C5F8AC45FDF7D2F84FF0FF33C5F8083317
:10D04400024B1C7138BD00BF00A0024060D000201C
:10D054000123024A8340C2F80433704700A002400F
:10D064000123024A8340C2F80833704700A00240FB
:10D07400F8B5012600270B4B0B4DD3F80C4304B92C
:10D08400F8BD94FAA4F0B0FA80F006FA00F324EAAA
:10D094000304064B82009F502B68002BEFD0A96835
:10D0A4009847ECE700A0024060D0002000A10240B5
:10D0B40010B4CC7B8A6803682CB9D1E90041C3F869
:10D0C4000845C3F80C15C3F82425282203795343D3
:10D0D400054AD3582BB1006810BC40F30730FDF764
:10D0E4006FB810BC704700BF6CD0002070B5817B56
:10D0F400E9B9046804F01F0364091AD140F20C650D
:10D10400104A114E02EB8303D3F800123140294335
:10D11400C3F80012416801F01F0349090DD102EB65
:10D124008303D3F8002232402A43C3F800220120AB
:10D1340070BD803351F82330FFDE803354F8233040
:10D14400FAE700BF00258440F0F8FCFF2DE9F04128
:10D15400074690F80480282000FB08F0144E0C4683
:10D16400351895F82210F1B9A96032506B6085F832
:10D17400251085F824106CB1A37B204685F8273050
:10D18400FFF7B4FF88B1637B2146384685F8263023
:10D19400FFF78EFF282303FB08660123054886F862
:10D1A4002230BDE8F0810448FBE70448F9E700BFFA
:10D1B4006CD000200000AD0B0C00AD0B0400AD0BD7
:10D1C400062103680279C3F800152821034B01FBEB
:10D1D4000233022283F82220704700BF6CD0002063
:10D1E400282102790B4B01FB02330021996002686C
:10D1F4000948C2F80803D2F8000220F4BC50C2F86F
:10D204000002C2F80015012283F8241083F82220BA
:10D21400704700BF6CD0002002029C012DE9F84F3A
:10D2240028239046002290F80490AE4D046803FB36
:10D23400095383F823204B680E4633B1CB6803F0BF
:10D244006043B3F1005F40F085813378023B012BEA
:10D2540006D8336903F06043B3F1005F40F07A818C
:10D26400A14BC4F80833282303FB095393F8241073
:10D2740001F0FF0239B19B68DFF870B2C4F80433DF
:10D284005846BDE8F88F18F0140F0CBF0121002197
:10D2940083F82410317809EB890783F8201071781A
:10D2A40005EBC70783F82110F168D960716819612B
:10D2B40031695961B168C3F81C809961C8F30011E0
:10D2C40083F825107378C4F88835C4F86021D4F83D
:10D2D4006031C4F84821D4F84831C4F82421D4F882
:10D2E4002431C4F80421D4F8043118F0010318BF20
:10D2F4000123C4F8503518F0020318BF0123C4F801
:10D3040040353378032B00F2A480DFE803F07999E9
:10D3140062024FF48073C4F80032D7E90323C4F8DF
:10D324004425C4F848350123A3604FF480112046F6
:10D3340004F0A9F90028F8D1D7E90523C4F8442555
:10D34400C4F8483528234FF4802203FB09539A601C
:10D35400DFF89CB1282202FB09F218F0080AAB5846
:10D3640005EB020013D13178032910D0012940F0D4
:10D3740086802160002B6FD0282202FB09F271689D
:10D38400AA5821B9002A00F0BB8001226261282238
:10D3940002FB09F2A918AA58002A00F0B18018F07B
:10D3A400040F1CBF00228A6018F0400F06D1282207
:10D3B40002FB0952916841F002019160282202FBAC
:10D3C4000952916841F4007191609268C4F8042391
:10D3D40056E7D7E90323C4F84425C4F84835D7E908
:10D3E4000523C4F83425C4F838354FF48453C4F8FD
:10D3F4000032012323622823022203FB0953A6E7F8
:10D4040018F0200FD7E90323C4F8442514BF4FF4C0
:10D4140080724FF40072C4F848354FF0280315BFEA
:10D42400C4F80022C4F800224FF48022022214BF60
:10D4340003FB095303FB09539A600123236287E723
:10D44400D7E90323C4F83425C4F838354FF480539E
:10D45400CDE7DFF8A0B07DE7026902B96161264932
:10D46400DFF898A0204604F00EF9012210F4007FA2
:10D4740018BF626110EA0A0F1F49F3D07CE701214B
:10D48400A160002B7FF478AF006918B31B4B1AEA34
:10D49400030F7FF471AF2046174904F0F4F810F439
:10D4A400007F8246F2D04FF08071204604F0EBF802
:10D4B400D4F8001280B111F4007003D10122824625
:10D4C40022626261CB05E1D54FF48021204604F04D
:10D4D400DAF804E06161D9E70122226262614FF067
:10D4E400000AD3E76CD0002002029C010B00AD0BB4
:10D4F4000000AD0B0400AD0B0202040002000400A6
:10D50400282101FB09550021D4F8C424C4F8C424FB
:10D5140085F824108AB11149114B12F0010F14BF80
:10D524008B469B46013112F0020F18BF8B4612F056
:10D53400040F0C4A18BF9346A2E618F0400F7FF47C
:10D544009FAE3946204604F05CF8054A002808BF1F
:10D55400934695E6DFF810B092E600BF0000AE0BEC
:10D564000100AD0B0200AE0B0A00AD0B70B55D4DB2
:10D57400022186B0284604F086F84FF4007106466E
:10D58400284604F080F8584CD8B1E6B9A3684FF0A7
:10D594008071C5F808330223A360A3682846C5F840
:10D5A400043304F070F818B1D5F800329B0503D4A5
:10D5B40001224C4B1A625A61012384F8233006B0CD
:10D5C40070BD002E58D0E5696E060AD494F8233055
:10D5D4003BB94549434804F014F880F0010084F84D
:10D5E400230015F0040525D13E4B94F82520C3F8FB
:10D5F4006051D3F86011C3F85C51D3F85C1112B1D7
:10D6040094F823205AB10022C3F80022A260374ABA
:10D61400C3F808234FF48062354BC3F88021238C70
:10D62400ADF80430E36804932369029363690593B6
:10D63400A36903932B4AD2F8C4349807C2F8C434BC
:10D644004AD459074AD4DA074AD494F823309B00C1
:10D65400DBB28DF8003094F825300BB984F824300F
:10D66400E3695B0703D594F82330002BA7D0D4E9F2
:10D67400003168469847A2E74FF48021284604F019
:10D6840002F894F82030ABB994F8253053B94FF42C
:10D694008062C5F80032A360144BC5F80833144BFC
:10D6A400C3F8802100238DF8043094F821308DF8DC
:10D6B4000530B7E74FF40073C5F8003240F2022397
:10D6C400A36003F1CE73C5F80833A368C5F8043327
:10D6D4000123AB602B6272E70123BAE70223B8E7A8
:10D6E4000323B6E700A000406CD0002002029C0196
:10D6F40000E100E0036803F01F025B0902600248D6
:10D7040018BF0020704700BF00258440F7B50646C7
:10D7140003F0E3FF084603F0E0FF01A80196FFF7DA
:10D72400E9FF0C4640F20D61019B2B4D00EB830099
:10D73400D0F8003201942B400B43C0F8003201A80A
:10D74400FFF7D8FF019B012700EB8300D0F80032DC
:10D754002B400B43C0F80032042003F0A7FE092538
:10D7640001A80194FFF7C6FF019A0369D340DB07C0
:10D7740014D401A80196FFF7BDFF019B013D07FAF0
:10D7840003F3C360042003F091FE304603F0A5FFC9
:10D79400042003F08BFE15F0FF05E1D101A80194EC
:10D7A400FFF7A8FF0123019A9340C360042003F00C
:10D7B4007DFE204603F091FF042003F077FE01A8CC
:10D7C4000194FFF797FF019A03690448D34003F0DB
:10D7D4000103C01A03B0F0BDF0F8FCFF0100AD0B6B
:10D7E40070B503680446033BDBB2052B03D8094A32
:10D7F40052F823502DB9A06858B1BDE8704000F02C
:10D8040011B803F0C4FF21682B46BDE87040090C31
:10D81400184770BD7C270100014B1B68184700BFE7
:10D82400D8C60020014B1B69184700BFD8C600208A
:10D83400014B9B68184700BFD8C60020014B1B68EA
:10D84400D868704794D00020002230B50B4B19687B
:10D854000C6894420FD001EBC2039D68A8420BD11F
:10D864004FF003020433D3E8CF1F002903D1C3E8E8
:10D87400C02F0028F7D130BD0132EAE7ACD0002038
:10D884002DE9F041002406460F462046DFF8548077
:10D894003368A34201D8BDE8F08106EBC4056B6888
:10D8A400DBB2012B16D16A68B8F80030B3EB124F23
:10D8B40010D1022FA8680FD1FFF792FF01206B68E7
:10D8C40023F0FF0343F003036B60B8F80030013327
:10D8D400A8F800300134DBE70168090C03F009FF04
:10D8E400ECE700BF98D4002010B5074C0221606813
:10D8F400FFF7C6FF0028F9D101212068FFF7C0FF18
:10D904000028F3D110BD00BFB4D0002070B50728A3
:10D9140060D8DFE800F00B5F475F435F3C0400F032
:10D9240017FF0320BDE87040FEF756BB03202A4BC7
:10D93400D3F81446D3F81866284B1D781870EDB246
:10D9440000F0D4FE012D10D1254B264A9C4212D062
:10D95400230C1B04B3F1886F0DD0A4F58033203B56
:10D96400022B0FD96FF0040313603146C4F30B008C
:10D9740000F0B0FE00E014601B4B186803F01EFDBD
:10D984000020CFE7194931F913301360F4E700247C
:10D99400124B20461C7000F0A9FEEDE7FFF7A4FF30
:10D9A4000220BFE70D4B1A78012AD0B20ED1104ADB
:10D9B4001168104A8C6854604968116002221A7018
:10D9C40000F094FE084B186803F0F8FCFFF78CFF96
:10D9D4000120A7E770BD00BF00A00240A5E400201D
:10D9E40001005005B0D000209CD0002094290100F3
:10D9F40098D00020B4D000200A23F7B54FF47A75EC
:10DA04000C4E0D4F01933168386803F09BFE0446B9
:10DA140040B903F0D1FC40B9012001A9FEF7EAF9AD
:10DA24006E30F0D1204603B0F0BD0198684303F096
:10DA3400C1FCE8E7A0D00020A8D00020054B1B784B
:10DA44002BB9054B1968054B186803F07BBE002001
:10DA5400704700BFA4E40020A4D00020ACD0002074
:10DA640070B5164B42681B6822F0FF0242F00202B6
:10DA7400C31A42601248134A0168C3F38913D2E8F7
:10DA8400DF4F651CC2E8D65F002EF8D101EBC3015D
:10DA94004A6892B242EA04424A600268032002EBF6
:10DAA400C302536823F0FF0343F00103536003F000
:10DAB40081FC0122044BDA6070BD00BFA4D00020B9
:10DAC400ACD000209AD4002000A002402DE9F04FF1
:10DAD40095B038220021064603A804F02AFB02234D
