:020000040000FA
:10800000A0F9002029A10000EB0D010015A100003E
:1080100015A1000015A1000015A1000015A1000088
:10802000000000000000000000000000EDA20000C1
:1080300015A1000000000000A5A2000015A100008D
:1080400075A4000075A4000075A4000075A40000CC
:1080500075A4000075A4000075A4000075A40000BC
:1080600075A4000075A4000075A4000075A40000AC
:1080700075A4000075A4000075A4000075A400009C
:1080800075A4000075A4000075A4000075A400008C
:1080900075A4000075A4000075A4000075A400007C
:1080A00075A4000075A4000075A4000075A400006C
:1080B00075A4000075A4000075A4000075A400005C
:1080C00075A4000075A4000075A4000075A400004C
:1080D00075A4000075A4000075A4000075A400003C
:1080E00075A4000075A4000075A4000075A400002C
:1080F00075A4000075A4000075A4000075A400001C
:1081000075A4000075A4000075A4000075A400000B
:1081100075A4000075A4000075A4000075A40000FB
:1081200075A4000075A4000075A4000075A40000EB
:1081300075A4000075A4000075A4000075A40000DB
:1081400075A4000053B94AB9002908BF00281CBF14
:108150004FF0FF314FF0FF3000F00CB8ADF1080CDC
:108160006DE904CE00F008F8DDF804E0DDE9022353
:1081700004B07047704700BF2DE9F04786468C4633
:108180000846089E154674461946002B40F0C180EB
:108190008542B2FA82F245D94AB1C2F1200300FA0F
:1081A00002FC954094402EFA03F343EA0C0C4FEA8C
:1081B000154EA8B2230CBCFBFEF80EFB18CC08FB36
:1081C00000F943EA0C43994528D9EB1808F1FF3729
:1081D00004D2994502D9A8F102072B44A3EB090365
:1081E000A4B2B3FBFEFC0EFB1C330CFB00F044EA14
:1081F0000344A04214D92C190CF1FF3304D2A0423D
:1082000002D9ACF102032C44241A43EA07401EB100
:10821000D440002334607360BDE8F0874746DDE753
:108220006346F1E792BB431B01214FEA154EAFB203
:10823000200CB3FBFEFC0EFB1C330CFB07F840EAE2
:108240000343984561D9EB180CF1FF3004D29845EF
:1082500002D9ACF102002B44A3EB0803A4B2B3FB98
:10826000FEFC0EFB1C330CFB07F744EA0344A74259
:108270004DD92C190CF1FF3304D2A74202D9ACF12D
:1082800002032C44E41B43EA0040C0E7C2F1200390
:108290009540944020FA03F12EFA03F34FEA154E6D
:1082A0009040AFB20343B1FBFEFC0EFB1C10190C57
:1082B0000CFB07F841EA0041884522D969180CF106
:1082C000FF3004D2884502D9ACF102002944A1EB69
:1082D00008019BB2B1FBFEFC0EFB1C110CFB07F767
:1082E00043EA01439F420ED9EB180CF1FF3104D24F
:1082F0009F4202D9ACF102012B44DB1B41EA004151
:1083000093E76046E3E76146F7E76046A4E7634624
:10831000B8E7834206D916B9002108467CE7C6E9CA
:1083200000E0F9E7B3FA83F78FB9834201D37245CE
:1083300008D8BEEB020460EB030301209C461EB983
:10834000002169E73846FAE7C6E9004CF8E7C7F1CB
:10835000200CBB400EFA07F522FA0CF42EFA0CF1B1
:10836000BA401C4320FA0CF3B8404FEA14490143C9
:108370001FFA84FEB3FBF9F809FB18300B0C08FB5D
:108380000EFA43EA00439A4540D9E31808F1FF305A
:1083900004D29A4502D9A8F102002344A3EB0A03B0
:1083A00089B2B3FBF9F809FB183308FB0EFE41EA6A
:1083B00003418E452CD9611808F1FF3304D28E4554
:1083C00002D9A8F10203214443EA0040A1EB0E01C7
:1083D000A0FB02984145CE46434602D306D14D4507
:1083E00004D20138B9EB020E68EB0403002EA7D0CB
:1083F000B5EB0E0261EB030101FA0CFC22FA07F364
:10840000F9404CEA0303C6E9003199E74046C5E765
:108410004346D9E7034613F8012B002AFBD1181A6B
:108420000138704708B50121034A044808F01DFCD3
:108430004FF0FF3008BD00BF82260100502201002E
:1084400008B5054B186809F03EFA18B9BDE80840B0
:10845000FFF7E8BF002008BD94C500202DE9F041DA
:1084600086B00DF10603012403930223134FADF8E8
:1084700006000E461546386804948DF8143083685B
:108480002246D3F8088003A93C23C04790B90323B0
:108490003868CDE903658DF81430836822469D68FD
:1084A00003A93C23A847003818BF0120404206B06A
:1084B000BDE8F0814FF0FF30F9E700BF94C5002020
:1084C0002DE9F04387B005460E46144602AF03215E
:1084D000034600921B481C4A08F0DAFB6A4604F186
:1084E0000803DB08A2EBC3039D46224631468DF804
:1084F00008500DF1090009F0F0FC144B04F10108DB
:10850000186802230DF10809C7E901983B738368D5
:1085100001229C68391D3C23A047044660B101211B
:1085200003460B4A074808F0A9FB4FF0FF342046EA
:108530001437BD46BDE8F0830321064A014808F020
:1085400094FBF4E7502201009726010094C5002017
:10855000BB260100D026010010B5194A0321194895
:1085600008F083FB1849194800F0C6F8024638B1F4
:10857000174A0121134808F078FB4FF0FF3010BD77
:108580000146124800F088F8044608B1114AF0E7A5
:108590000321114A0B4808F068FB0C4807F026FC41
:1085A000224621460D4B094807F04AFC074800F0D7
:1085B00017F800214FF4203006F0B8FDF9E700BFAE
:1085C000E52601005022010080C5002080D6002051
:1085D00002270100202701003D270100F8C60020E6
:1085E0002DE9F34100252C46A846174F00F114064B
:1085F00065F04F0300218DF8043001AA01233046B5
:1086000007F059FC1023002104448DF806300DF1C9
:108610000502022330468DF8058007F04CFC3A46EF
:10862000044480234021304607F045FC0135082DE5
:10863000044407F18007DBD1201E18BF012040420F
:1086400002B0BDE8F08100BF00CC0020CB0800EBF9
:10865000C3100123034A01F007018B40115C0B4357
:108660001354704700CC0020FF2B084610B511466C
:1086700003D1FFF7EBFF002010BDD30802F0070184
:108680000122044C00EBC310235C8A4023EA02035E
:108690002354F0E700CC0020F0B589B001AA0546CC
:1086A0001746134B03F11806144618685968083327
:1086B00003C4B3422246F7D100261B781435237039
:1086C000012300212846BA1907F0F5FB044658B9E2
:1086D0000136192EF4D101464FF48062054809F0A5
:1086E00009FC204609B0F0BD4FF0FF34F9E700BFA8
:1086F0007022010000CC002070B10B6803604B6851
:1087000043608B688360CB68C3600B69C0610361A1
:10871000044B8361044B4361036803B118474FF076
:10872000FF307047C9FD0000DBFD00002DE9F04F70
:1087300091B0009302F004030293C2F3C203013329
:10874000840705460E46DDF868900392059340F0D5
:10875000BB81041D30B1072909D86FF01B0011B08F
:10876000BDE8F08F01F00706341DC6F10806009B36
:108770004FF000084FF0040A591E4FF0FF334746F0
:108780000193C3465346CDF810800DB1009A226084
:108790000598002800F3E8809848009A824203D3A5
:1087A00097488242C0F0E080039AA4EB050E92073E
:1087B0004FEA9E0000F103810F2F00F2B180002DDF
:1087C00000F0058107F140020DEB020C019A0CF854
:1087D000200C0CF8102C049801300490E7E07A2863
:1087E0005DD84B280ED8472859D829282DD82528B8
:1087F00052D054D820287AD02338D0F1000B4BEB3C
:10880000000B74E04C382E2849D8DFE800F070489F
:10881000484848484848484848484B4848484848D5
:1088200048484859484B4B595959704B6D48704806
:10883000184B184848827F4B48484B487F0000201F
:108840004FF0000B4FF0040A38E001222A38C0B282
:1088500002FA00F010EA0E0F49D110F0625C2FD13D
:1088600010EA020B43D06046013C5444B4FBFAF4D6
:108870000AFB04F4002D61D0A3EB050CA444B4451D
:108880003FF66BAF002868D1042B47D159F8043B61
:108890002360042304342AE0019A013A01924FF044
:1088A000000B24E011F8010C6C2834D1002011F8E1
:1088B000023C83466C2BC5D14FF0080A5346D3E7E0
:1088C00009F1070929F00709073424F00704F9E83A
:1088D00002AB35B106982044B0423FF63EAFC4E942
:1088E00000AB4FF0000B08344FF0080A534611F864
:1088F000010F002878D0BBF1000F7FF470AF25285E
:10890000F5D14FF0010B019B013301934FF0040AA5
:10891000ECE7584694E700208346A5E7082B02D0F1
:108920006FF015001BE709F1070929F00709F9E8BD
:108930000223C4E9002308230834D8E768B9042BCC
:1089400002D109F10409A4E7082BE9D109F10709CB
:1089500029F0070909F10809EDE7059A013A05929E
:1089600059F8042B009210E7039A900720D54FF096
:10897000010CA4EB050E4FEA9E00BEF5007FCFD29E
:108980000F2FCDD8F5B107F140020DEB020E019A81
:10899000C0B20EF8200C0EF8102CBCF1000F3FF402
:1089A0001AAF60F07F000EF8200C08F101080137C3
:1089B000C5F108024FF6DA7E0434069297E74FF0CD
:1089C000000CDAE7BCF1000F01D00136EFE70298A6
:1089D00002360028EBD10098CDE90631FFF71AFDE9
:1089E000DDE906310644E2E7631BB3F5806F97D2F9
:1089F00045B9A6F10804E018B1E600BF281F010040
:108A00004C330100029A9B0828602B709DF81030AF
:108A1000C2B1EB7085F80280B8F1000F05D00022DA
:108A200008A8C5F1010C97420ED14FF0000AC5F11C
:108A300001030DF1200901930DF1300B574512D1BF
:108A4000601B8CE66B70E5E710F8013B190608D552
:108A500004EB0C0EB64503F07F033FF67EAE04F840
:108A6000013B0132DFE7B8F1000F03D099F9002094
:108A7000002A17DB029BD3B11AF80B2004F8012B54
:108A80000022019B98182044B0423FF666AE99F848
:108A90000000009904F8010B2046039209F01DFA2A
:108AA000039A14440AF1010A09F10109C6E799F889
:108AB000002055F822300093029B009845F82230A0
:108AC000FFF7A8FC421CDCE76FF00D0047E600BF93
:108AD0002DE9F04F97B000AFD7F880B03B62CBF3F1
:108AE000C0030446894690F802A0FA62BB6141B90E
:108AF000457800780AEB800020444D4517D8A0EB5C
:108B00000409E378FB61BAF1000F02D01BF0010FFA
:108B100016D1FB6953BBFB6A1BB1494620463A6A32
:108B200098474D4628465C37BD46BDE8F08F461C49
:108B30003046FFF76FFC0130304409F10109DCE7F2
:108B4000626823787A62FA6A9900796104EB83019A
:108B5000002A40F001810E464FF000084D4601EB1F
:108B60000A094E454CD101EB0A0610E01BF0020F3A
:108B7000D1D023789A007A61626804EB83017A622B
:108B8000FA6A002A77D14D46904601EB0A061BF09F
:108B9000050F0CBF02230123FB62FB6906EB430AAE
:108BA0000BF00203BB625645BCD016F8021B16F848
:108BB000013C54F82390AF4B994502D3AE4B9945F5
:108BC00036D3BB69002B40D0786A07F058FC0028E8
:108BD0003BD0E9468AB06A46A84B53617B6AC2E93A
:108BE00006314FF400731384A54B42F8103F002365
:108BF0004FF41251A34800F007FD023DCD46D2E7E5
:108C000016F8013BF96254F82300FFF703FCD7F88C
:108C10008430F96A01304BB1D7F8883098453EBFAF
:108C2000D7F8843023F8180008F10108054498E7C4
:108C3000BB6923B1786A07F022FC0028C9D11BF078
:108C4000010F05D1FB6AED1AADE7BB6A002BAAD074
:108C50004846FFF7DFFBD7F8843053B1D7F88830A8
:108C600098453FBFD7F88420431C22F8183008F1FC
:108C70000108054497E7BAF1000F73D01BF0040612
:108C800073D0D046002607F1480052463B61B962D6
:108C900009F023F9B96A3B6901EB0A02BA62FA6981
:108CA000F9695200FA60BA6A02EB41023A610BF0CC
:108CB0000202BA603A69B96A8A4258D162781BF0F6
:108CC000020F18BF00217A6208BF4FEA5801B2189C
:108CD0001BF0010FD2B240F09F801BF0040F14BFB5
:108CE00040460020BB616270A070E17020463A6A85
:108CF0007969FB6A9847051EFFF614AFBB694146C8
:108D000023707B6A3A6A6370FB6984F802A0E3709F
:108D100007F14800FB6A9847B0F10008C0F2B48040
:108D20007B69A9EB0A01C91AFB683A6AC91AD7E933
:108D30000A0398470028C0F2A9804FF0000BA8440E
:108D400008EB000507F1380AB34567D300213A6AFA
:108D50000846FB6A9847E5E656464FF0000807F1DB
:108D6000380092E75646D04696E7B04694E7BA6A8E
:108D700012F8021B12F8015CBA6254F825003D4A51
:108D8000904202D33C4A90421ED3BA6932B1786A0B
:108D90007B6007F074FB7B6800288BD1BA6802BB4C
:108DA00008F1280207F1300C08F10100944407F1A2
:108DB000580208F1020852FA80F00CF8101C5FFA11
:108DC00088F800F8105C75E7BA693AB1786A7B6098
:108DD00007F055FB7B6800287FF46CAF1BF0010F98
:108DE00009D006F1280207F13000711C161806F8A8
:108DF000205CCEB25EE71BF0040F3FF45BAF08F1DE
:108E0000280207F1300008F1010102EB000808F820
:108E1000105C5FFA81F84DE7002063E71BF80A3029
:108E200054F8239087F83730D7F88430FBB133F803
:108E30001B8001213A6AFB6A07F137009847002836
:108E400024DB0544B8F1000F06D14846FFF7E2FAEB
:108E500000F101081FFA88F8414648463A6AFB6A61
:108E60009847002812DB05440BF1010B6CE7D7F89B
:108E70008480DEE7281F01004C3301007A270100BF
:108E800004000001F021010045464BE6054649E695
:108E9000014B1860704700BF98C5002080B505469B
:108EA0000E461746984606F05FF9034609F032F879
:108EB0000446DFF81890424649F8003039463046FB
:108EC000A84754F8090001F097F900BF0800000016
:108ED0002DE9F047058B04462807904611D4022956
:108EE00005F0070540F0CC80204607F050FD78B132
:108EF0000138218B042811D8DFE800F0C2106D85FD
:108F0000950001290CBF45F0100545F0200525838B
:108F100088F31188BFF36F8FBDE8F08701F0070A6F
:108F2000AA4500F0A5800027B9463E46A368002B5D
:108F300000F0BC8041F00801218388F31188BFF361
:108F40006F8FA168002900F0BA800D68002900F039
:108F5000B680334652462046D1F80480C047002DE3
:108F600076D02B6829461D46F0E701F007035A1F0B
:108F7000012A1BD8002221F00701062B276889B29D
:108F8000C4E9002209D13B4603E0628B01326283CF
:108F90001B68002BF9D141F002012046218307F024
:108FA000F6FC00287AD041F0200176E0042B0AD1AB
:108FB00021F0070189B22046218307F0E8FC10B1B7
:108FC00041F020012183218B01F0070AAA454FD0EF
:108FD0000027B946AAE7236921F0070141F00601FD
:108FE000062DD3F8009021832DD1B9F1000F3FD089
:108FF00041F00801218388F31188BFF36F8F204669
:109000003949C84729E021F00701236941F00401EB
:1090100089B2042DD3F804902183E6D000274FF0C5
:10902000040A3E4682E721F00701236941F0050169
:1090300089B2052DD3F808902183D6D000274FF0B0
:10904000050A3E4672E700274FF0060A3E466DE7E6
:109050002B4687E7B9F1000FD1D1EFF31188202318
:1090600083F31288BFF36F8F238B23F008032383CE
:10907000258BEA062ED525F01003238305F007057E
:109080006669218B002EBFF670AF00232768C4E904
:10909000003321F0070141F001012183218B4FF0C2
:1090A000000901F0070AAA457FF440AF002F9CD0C9
:1090B00041F00801218388F31188BFF36F8F002FDF
:1090C000C8D03D68394633465246204607F08BFCEF
:1090D0002F46F4E7AB067FF51BAF25F02003238373
:1090E00005F0070500E700BF130A01002DE9F0476E
:1090F000044607464FF00109DFF8508014B938469E
:10910000BDE8F08794FAA4F5B5FA85F509FA05F3F8
:109110002E0108EB05156FEA030A24EA03042B7BF2
:10912000002BEBD058F806301B694BB946447368E6
:1091300004222846196807EA0A0700F051FADDE719
:10914000284698470028D9D1F0E700BF60220100E7
:1091500030B5002289B00F490F4808F0F1FD002218
:1091600000230024CDE906230E230C4DCDE9033462
:109170004FF440722846CDE90144094B0949009457
:1091800005F024FD0849284608F060FC204609B097
:1091900030BD00BFAD91000088D4002000D0002079
:1091A0008594000060DD00202E280100014805F0B4
:1091B00085BC00BFE8CB00202DE9F04780461F4862
:1091C0000F4607F0D0FC0646002830D00025284680
:1091D000BDE8F087237B6BB12368DB680BB12046C9
:1091E000984723681B69D3B963680422204619682D
:1091F00000F0F6F9013610344C45EBD3B8F1000F0E
:10920000E5D0002DE2D02846FFF770FF0546002F7D
:10921000F7D000214FF4A47005F088FFF1E7204655
:1092200098470028E0D00AFA06F31D43E2E7054616
:109230004FF0010A024CDFF80C90DDE7B8D60020B1
:109240006022010070220100014B53F8200070479A
:10925000AC22010008B5034608462BB1044A13604E
:1092600000F05EFC002008BD6FF01500FBE700BFBA
:109270009CC5002010B5044C237813B9034805F0B1
:109280001DFC0123237010BD3CDD0020E8CB002035
:1092900010B50446064807F066FC3CB1054BD3E820
:1092A000EF1F0139C3E8E21F002AF8D110BD00BF4B
:1092B000B0D60020B4D6002000200146034BD3E8EE
:1092C000EF0FC3E8E21F002AF9D17047B0D60020A3
:1092D00070B5FFF7F1FF0546074C084EB44200D3C6
:1092E00070BD63685B792BB123685B6813B1294655
:1092F000204698471034F1E76022010070220100F7
:1093000010B5044C0449204607F0E9F9034B1C60F2
:1093100010BD00BF84CB002098220100A8D60020F9
:1093200008B50023074A4FF400411370064A074866
:109330001360074A1360FFF78DFFBDE80840FFF791
:10934000DFBF00BF3DDD0020B0D60020630B010071
:10935000B4D60020014600220023014807F0E0B9FE
:1093600084CB0020014807F076BA00BF84CB0020F0
:10937000024B0146186807F0C2BA00BFA8D6002009
:10938000014807F0F7BA00BF84CB002070B5264B28
:109390001878002847D0FFF7E5FF054670B1234B4A
:1093A000D3E8EF1F0139C3E8E21F002AF8D1204CAF
:1093B000204EB4422DD32846FFF7DAFF1E4B1F4C38
:1093C0001B68002B19DD08F074FC4FF47A72A0FBC7
:1093D000020302FB0131C30B43EA4143D4E90020FD
:1093E0009B1A40F2E9324FEAD13161EB000193421E
:1093F00071F1000101D3FFF76BFFD4E9003213F5DF
:109400007A7342F10002C4E90032BDE87040FFF710
:10941000B7BF63685B7923B12368294620461B6880
:1094200098471034C5E770BD3CDD0020B4D600205D
:109430006022010070220100B0D6002080D40020FC
:1094400070B50D4D297861B90120FFF7B5FE0B4CC1
:109450000B4EB44206D3FFF799FF0028FBD101233E
:109460002B7070BD63685B791BB1236820469B68D5
:1094700098471034EDE700BF3DDD00206022010079
:109480007022010000212DE9F0470846FFF794FE05
:10949000044658B340F267684FF0000908F03AFDFF
:1094A0001B4B1C4A1B58136033B11B4B1B68092B09
:1094B00002DD1A4805F002FB0025194FDFF85CA019
:1094C00044B12046FFF712FE044618B94FF0FF38AA
:1094D0004FF0FF39FFF75AFF064628B9B5B94246A3
:1094E0004B46504605F00EFB3546E9E74FF0FF3896
:1094F0004FF0FF39D2E72B689B691BB10022284649
:10950000114698471035BD42F5D3E8E7054DFAE717
:1095100008000000ACD60020B4D60020E8CB002024
:10952000702201006022010013B5184807F01BFBF0
:10953000174B1B7873B1EFF31184202383F3128848
:10954000BFF36F8FFFF722FF84F31188BFF36F8F94
:1095500002B010BD0F4B1B68002BF9D050B9002290
:1095600000230D48CDE900234FF40042002306F00C
:1095700051F8EDE70928EBD1074808F0EDFB074863
:1095800002B0BDE8104005F099BA00BFB4D6002083
:109590003DDD0020ACD6002088D40020E8CB0020A0
:1095A00010B5064B04461B6898472146A060044846
:1095B00007F032F9BDE81040FFF7B6BF9CC50020A8
:1095C00084CB0020044A054B9B1AB1EBD30F34BF68
:1095D00052F8310000207047E821010060220100AC
:1095E000084B10B4C31A44681B110133237143683C
:1095F0009A7101224368196043685A7110BCFFF7E1
:1096000039BE00BF602201002DE9F04F8FB0C1F3D9
:109610004A2804AF0D469146B8607B600C0DB8F146
:10962000000F63D000264FF0040B4FF00A0A07F139
:109630001403C7F80C80C7E907667E620193CDF872
:1096400008B0CDF800A007F11C0332464846F9687F
:10965000FFF73EFAB0F5006F03461CD36C468AB0A4
:10966000D9F8041004AB26481A46C3E9050140F2B4
:10967000FF71D9614FF400711984224B42F8103FF9
:109680004FF4125133462048FFF7BEFFA5462C3752
:10969000BD46BDE8F08FC0F30A0804F11700184476
:1096A00020F0070080083B60FFF754FE68F3532565
:1096B000044690B13B6800F11001C7E9083607F194
:1096C0001403F961CDE900A3CDF808B048460F4A6C
:1096D000F96807F11C03FFF7FBF968F353252A46E5
:1096E00020467B68B96807F070FAD0E704F11700EC
:1096F00020F007008008FFF72DFE0446EDE700BFCD
:109700004328010004000001102201009F0B01000A
:109710002DE9F04F87B00446DDE9105ADDE9126902
:109720000F4693469846A6B3102133465246002072
:10973000CDF80090CDF81490FEF7F8FF014605F142
:1097400017000844144B04F007040BF0070BE40067
:1097500020F0070003EA412344EA8B1480081C43ED
:109760000391FFF7F7FD44EA0554054640B13EB1C9
:10977000334652460399CDF800901030FEF7D6FFDD
:10978000434622463946284607B0BDE8F04F07F069
:109790001CBA3146D3E700BF00FE0F00406820B17D
:1097A000034BC01A40F3CF0070474FF0FF307047B3
:1097B000E82101000EB403B503AB53F8042B0146B6
:1097C0000448019301F08AF802B05DF804EB03B09D
:1097D000704700BFDF0C0100CA0605D48B064CBFE2
:1097E00002490349FFF7E6BF704700BF333201006B
:1097F000323201002DE9F04F89B09B46149B9DF851
:109800004CA00693159B04460593169B0D46904667
:10981000179E0493BAF1000F00F09D8006F4807348
:10982000079307F0BAF906F00209024600283ED075
:1098300020469149FFF7BEFF0746B9F1000F08D057
:1098400016F0440F35D12A4620468C49FFF7B2FF67
:10985000074406F0010353B1894B204653F82A20F0
:10986000884B8949002A08BF1A46FFF7A3FF06F470
:109870008073002B49D006F00803002B63D1B8F1A8
:10988000000F66D0424620468049FFF793FF054609
:10989000069B3D44002B6DD1049B002B73D1F30735
:1098A00000F1E48031462046FFF796FFD8E00746F6
:1098B000C3E7774B18680028CAD0764B4FF47A7903
:1098C0001B684FF46161B5FBF3F5B5FBF0F300FBEA
:1098D000135509FB05F5B3FBF1F2B5FBF0FE4FF0B4
:1098E0003C0C01FB123100FB1E55B1FBFCF309FBE4
:1098F00005F5B5FBF0F50CFB131120460091CDE901
:1099000001E56549FFF756FFA2E706F00803EBB152
:10991000624B204653F82A206149FFF74BFF05466A
:10992000B8F1000F05D0424620465849FFF742FFE4
:109930000544BBF1000FABD05A4620465949FFF70A
:1099400039FF0544A4E74FF0000BE1E706F00805F6
:10995000E6E745469CE7BBF1010F069B06D1002BCD
:1099600064D1049B002B7BD000250CE0002BF8D0A9
:109970004D485CE04D48069B22464D4906F04EFDA1
:10998000049B002B68D0DFF82C81DFF82C91049F1A
:109990003146102F204628BF10274FF0000BFFF74D
:1099A0001BFF5D4545DC059B494620461A78FFF7BD
:1099B00001FF4FF0010B1BF0070F03D1414620467A
:1099C000FFF7F8FE5F453BD9059B4946204613F853
:1099D0000B20FFF7EFFE0BF1010BBBF1100FEAD1EB
:1099E0004FF0000B20463549FFF7E4FE5A46059B31
:1099F00020469A5CA2F120015F2928BF2E2230491F
:109A0000FFF7D8FE0BF1010BBBF1100F1DD01BF0BF
:109A1000070F03D141462046FFF7CCFE5F455A466B
:109A2000E5D841462046FFF7C5FEEBE71F485546FF
:109A3000A1E741462046FFF7BDFE0BF1010BB0E761
:109A400020462049FFF7B6FEC5E7059B3B4405933A
:109A5000049BDB1B04939AD1BAF1000F7FF41FAF74
:109A6000204609B0BDE8F04F07F02CB92046054A62
:109A70000549FFF79FFE15E7872801008B280100A5
:109A8000BC22010082280100882E0100B0280100BC
:109A9000C0D60020BCD6002094280100D0220100AE
:109AA000B4280100BA2801000D0D0100DF0C0100EF
:109AB000DDA80000C7280100BF280100C928010057
:109AC000CB280100C528010042F20F7373B58B4209
:109AD00028BF0B4605680446052168460D4A05F077
:109AE000D9FD0646636828460B225B680A4907F0E1
:109AF000DBF863683246694628465B6807F0D4F8AD
:109B000063681B2228465B68044907F0CDF802B061
:109B100070BD00BFCD260100EA280100CE2801005B
:109B200000210123064A904206D8064A01B90123C2
:109B30001360054B18607047012140085B00F2E795
:109B400040420F00BCD60020C0D60020F8B50D461C
:109B50000446064F4618B44201D12846F8BD14F811
:109B6000011BBB6801485B689847F4E7B81F010018
:109B7000014B0360002070471823010008B504481A
:109B800006F0A4FCBDE80840024806F09FBC00BFF8
:109B900030290100652901002DE9F04706460C46F1
:109BA00000AF002936D0D1E90012E9468AB06D46EF
:109BB000A3684FF0050AA8461F48C5E90723C5E971
:109BC000050148F810AF002342464FF421511B48CD
:109BD000FFF71AFDD4E90312CD466369AD46184874
:109BE000C5E90723C5E90501C5F810A000234246D1
:109BF0004FF421511148FFF707FDCD46E3690121DC
:109C0000104A0E4807F03AF8A36901210E4A0B48A2
:109C100007F034F8012E07D1EFF305830B4A3146E4
:109C20000648103B07F02AF82146304604F0E4FCD1
:109C3000BD46BDE8F08700BF932901004022010026
:109C4000C2290100F1290100002A01002E2A010089
:109C500030BFFFF7FDBF00BF2DE9F04105460B4EB9
:109C6000DFF82C80324606EB0807CC1B204609495A
:109C700008F033F9A01942460021083C08F03AF9EF
:109C80002C6707F10800BDE8F08100BF000000006C
:109C90000800000070220100074A936893F90E1033
:109CA000002907DB526993421FBF044A536843F0FF
:109CB00080535360704700BF08DD002000ED00E0D6
:109CC00070B52A4C06460D4629482A4907F094F8F3
:109CD000A36ADB0647D52648274907F08DF81120EF
:109CE000A36A1C0704D52248244907F085F81220EE
:109CF0001E4CA36A990712D521491D4807F07CF82C
:109D0000636BA26A120609D501211E4A184806F0A3
:109D1000B5FF1EB1A36A23F08003A3621320134C86
:109D2000A36ADE0704D51248174907F065F8142026
:109D3000A36A9C0604D50E48144907F05DF8152067
:109D40000A4B9A6AD10658BF9A6A9A6A920642BF2B
:109D50005A6A22F400525A629A6A42F0FF029A62E8
:109D600000232B7070BD1020BAE700BF00ED00E0AB
:109D700040220100412A0100572A01008A2A0100DD
:109D80009D2A0100B52A0100CB2A0100EA2A010020
:109D900010B5244C2449254807F02EF8A36A9901F0
:109DA0003ED52248224907F027F81E20A36ADA018F
:109DB00004D51E481F4907F01FF81F20194CA36A3D
:109DC000DB0204D519481C4907F016F80220A36AE3
:109DD0001C0304D51548194907F00EF82120114C31
:109DE000A36A590304D51148154907F005F8222044
:109DF000A36A9A0304D50D48124906F0FDFF2320FB
:109E0000084CA36ADB0304D508480F4906F0F4FFA9
:109E10002420A36A6FEA03436FEA1343A36210BDD1
:109E20001D20C3E700ED00E0192B010040220100D6
:109E3000312B0100442B01005E2B0100882B010017
:109E4000A62B0100CB2B0100E52B010070B5294C9E
:109E500006460D462848294906F0CEFFA36AD904D4
:109E60003CD52548264906F0C7FF1720A36A1A05E6
:109E700004D52148234906F0BFFF18201D4CA36AD2
:109E80009B0512D51C48204906F0B6FFA36BA26AB9
:109E9000100409D501211D4A174806F0EFFE1EB136
:109EA000A36A23F40043A3621920124CA36A590544
:109EB00004D51148164906F09FFF1A20A36ADA0557
:109EC0000ED50D48134906F097FF1B20094A936AE7
:109ED00043F47F43936200232B7070BD1620C5E7C7
:109EE000A36A9B04F2D504480B4906F085FF1C20A9
:109EF000ECE700BF00ED00E040220100102C010063
:109F0000262C01008A2A0100372C0100502C010068
:109F1000652C0100802C0100EA2A01002DE9F047A0
:109F20008AB0694B0446D3F804A08946164600253A
:109F300000AFCAF3080885F31188BFF36F8F02F0F2
:109F40007F43B3F17F4F1ED1D3071CD4500603D4F7
:109F5000110708D4012508E05C495D4806F04CFF74
:109F600016F0040600D04C4600250023FB71A8F132
:109F70000303092B00F28680DFE803F0077C7F797A
:109F80008484848484822C46EFE75249504806F04A
:109F900033FF00234C4EFB71F36A9A0705D54E49F7
:109FA0004B4806F029FF002329E0F36A002B01DA71
:109FB0004A49F5E7F36A5B00F5D54949444806F09C
:109FC0001BFF7369A26943F480737361BFF34F8F02
:109FD000BFF36F8F736932F8022C23F480737361BF
:109FE000BFF34F8FBFF36F8F4DF602739A4228D1A4
:109FF000236801213B4A364806F040FE2368FA797F
:10A00000DAB907F1080604F1200C324620686168CD
:10A01000083403C264451646F7D17A6A002D4ED043
:10A02000C2F3080121B96FEA52226FEA42227A6232
:10A03000184607F10801FFF7AFFD2837BD46BDE818
:10A04000F087B36ADBB22BB10120F91DFFF738FEB0
:10A050000346D4E7B36A13F47F4F04D00120F91DFF
:10A06000FFF7F4FEF4E7B36AB3F5803F9BD3FFF745
:10A070008FFEEDE70020F91DE8E70020F91DEFE76E
:10A0800019498DE7194A6E461AF4F87F8AB0184BC1
:10A0900018BF13466A461749C2E90513A8F1100311
:10A0A000D3614FF400731384134B42F8103F002325
:10A0B0004FF411510648FFF7A7FAB54673E722F4AB
:10A0C000FF7222F00102B2E700ED00E0C62C0100B1
:10A0D00040220100E92C0100002D0100212D01008A
:10A0E0002F2D01004E2D01006A2D0100AD2C010025
:10A0F000982C01008E2D010004000001044B5A69C8
:10A1000042F010025A615A6942F480625A61704703
:10A1100000ED00E0EFF30880EFF3098101B572462E
:10A12000FFF7FCFE01BD00BF002080F31488BFF3E1
:10A130006F8F002080F30A8880F30B8807F095F872
:10A1400000200E490860BFF34F8F0D4880F3088848
:10A1500000F02CF8202080F311880A484FF40061A9
:10A16000401880F30988EFF314800221084380F33C
:10A170001488BFF36F8F00F00FF9000094ED00E03A
:10A18000A0F9002060E00020002318460649D1F81D
:10A190009020C2F30722934200DB7047C1F8983049
:10A1A000C1F8A0000133F6E700ED00E010B572B68B
:10A1B000002484F31388FFF7E7FF23464FF0FF30B6
:10A1C0000C4A03F120010133102B42F82100F8D191
:10A1D00000234FF0FF30074A03F160010133102BD9
:10A1E00042F82100F8D162B6BFF34F8FBFF36F8FF3
:10A1F00010BD00BF00E100E0084B9B6883420BD11B
:10A20000EFF3058343B1064B5A6842F080525A601F
:10A210005A6A22F400425A6207F010BD08DD00209D
:10A2200000ED00E06FF00A01084A93689967084959
:10A2300058674B6843F080534B60002383F31188C9
:10A24000BFF36F8F9368986F704700BF08DD0020E1
:10A2500000ED00E0104A936883F87D00EFF311836E
:10A26000202383F31288BFF36F8F4FF0006153698F
:10A2700020F0FF009360094A5160196F084A11608D
:10A28000002193F87D2010435A6F596782F311889B
:10A29000BFF36F8F704700BF08DD002000ED00E0C6
:10A2A000E8D6002010498A6882F87DE04FF030003F
:10A2B0001044EFF3098C80E8F01F74467046FFF7F6
:10A2C000C9FFA64608498A68864602F1300090E830
:10A2D000F01F8CF3098802F1000004B506F096FD2A
:10A2E000BDE804407047000008DD00201EF0040FA8
:10A2F0000CBFEFF30880EFF30980816911F8021CAD
:10A300000229FFD001B506F06CFD01BD40B2002866
:10A3100007DB01234109034A00F01F00834042F894
:10A320002130704700E100E040B200280CDB012240
:10A330000649430900F01F008240203341F82320E2
:10A34000BFF34F8FBFF36F8F704700BF00E100E096
:10A35000054B420953F82220012300F01F0003FAA5
:10A3600000F01040704700BF00E100E040B200285C
:10A3700001F10101ACBF00F16040064B4FEA411111
:10A38000C9B2ABBF00F5614000F00F0080F80013C8
:10A390001954704714ED00E00B4A08B50B4B22F03E
:10A3A0007F029A60BFF34F8FBFF36F8FD3F888207F
:10A3B00022F47002C3F8882004F008FA04F060FF69
:10A3C00000F04CF804F042FA0080000000ED00E0DC
:10A3D00042F8203C009B0C4942F81C3C019B21F0B8
:10A3E000010142F8183C029B42F8081C42F8143C58
:10A3F0004FF0807342F8043C002343674FF43C4322
:10A40000203A0265C36770479D8E00000C4B1546CD
:10A410009860026F0B4B0E461A60036E83F30B8835
:10A420002C4686F309884FF00000074B98472046DA
:10A430004FF000014FF000024FF00003034C2047A3
:10A4400008DD0020E8D60020150E01009D8E0000DA
:10A450001022014B1A61704700ED00E0002320211B
:10A460000348C2180133412B82F80013F9D1704719
:10A4700000E100E008B5EFF30583064A103B02EB6C
:10A48000C30152F8330049688847BDE80840FFF728
:10A4900003BC00BFE01F01001FB5094C094A234659
:10A4A0000121094800F012F900230393074B012111
:10A4B000E41A01A80193029400F012F904B010BD4F
:10A4C0000000042080C500201823010000CC0020DB
:10A4D00010B50C7A0B6804F01F0223F01F031A4317
:10A4E000CB68640923F01F03054943EA440343F0A2
:10A4F0000103C1F89800C1F89C20C1F8A03010BD3C
:10A5000000ED00E010B50A4BD3F89030C3F30723F9
:10A51000013B984208D901210346064A064806F045
:10A52000ADFB6FF0150010BDFFF7D2FFFBE700BFDA
:10A5300000ED00E0A52D0100302201002DE9F04FD3
:10A540008946144606464FF00008514D85B0C8456F
:10A5500027DAD6F804A0BAF1000F44D0BAF11F0FE1
:10A5600017D91AF01F0F14D1D6F800B01BF01F0F27
:10A570000FD1584606F071FC07460AEB0B00013874
:10A5800006F06BFC874210D06FF01507414A3B463E
:10A5900001E04346404A0121404806F06FFB6FF05E
:10A5A0001504204605B0BDE8F08F17F1160FEDD069
:10A5B000BC42EBDDC5F89870D5F89C10C5F89870D2
:10A5C000D5F8A03021F01F0143F01F0BD6E900326F
:10A5D0001A44994202F1FF3A1DD1D34507D13146C1
:10A5E000F8B206F043FC08F101080C36AFE731463B
:10A5F000C5F89870D5F89C3022F01F0203F01F03B5
:10A600001343C5F89C30E0B206F030FC10F1160F91
:10A61000C5D0441CE7E7C5F89870D5F8A020013BE9
:10A6200023F01F0302F01F021343D3453146E0B26B
:10A63000C5F8A030E8D006F019FC10F1160FAED026
:10A64000C5F89870D5F89C209DF808300BF1FF3BB9
:10A6500062F304038DF80830D5F8A0309DF8082087
:10A660005B0863F347128DF80820D6E900321344E3
:10A67000009323F01F035B44A3EB0A03013023F094
:10A680001F036946C0B20393FFF73CFFBEE700BF5C
:10A6900000ED00E0EE2D0100CB2D01003022010085
:10A6A0000522044BC3F89420BFF34F8FBFF36F8F85
:10A6B000704700BF00ED00E0BFF35F8F0022024B48
:10A6C000C3F89420704700BF00ED00E010B5034CC4
:10A6D0002278FFF733FF207010BD00BF3FDD002060
:10A6E0002DE9F74F294D8A4606464FF00008AB4644
:10A6F000274FD0451BDAD6F80490B9F1000F3FD0B0
:10A7000031680846019106F0A8FB0199044609EB5F
:10A710000100013806F0A1FB84424FF014021D4BEA
:10A7200008D002FB08F36FF015024BF8032003B0CA
:10A73000BDE8F08F14F1160F2C60F8D01978A14203
:10A74000F5DD02FB08B0C7F89840C7F89840D7F885
:10A750009C4000F10801007B64F304000871D7F805
:10A76000A0000C79400860F347140C71D7F89C10D6
:10A7700021F01F016960D7F8A01021F01F012961A5
:10A7800008F1010814350C36B3E700BFECD6002001
:10A7900000ED00E03FDD0020F0B54149414CD1F82B
:10A7A00090302568C3F307239D4287B075D80020F9
:10A7B000FFF782FF3C4BC1F8C030854216D13B4CBD
:10A7C00001A82570FFF7D4F900250646384FAE42A0
:10A7D00013D1002023783249D1F89020C2F3072208
:10A7E000934254DBFFF75CFF00202FE0616801EB30
:10A7F0000011FFF76DFE0130DFE70199280101EB41
:10A800000513DA683A40B2F5001F21D0B2F5800F87
:10A810002BD0B2F5801F38D15A689B680958013B8C
:10A8200022F01F0003440120844623F01F0340EA66
:10A830004C10CDE902218DF8100002A92078059373
:10A84000FFF760FE00281DDA6FF0150007B0F0BDBD
:10A850005A689B680958013B22F01F0003444FF0DF
:10A86000020C012023F01F03E1E75A689B68095896
:10A87000013B22F01F0003444FF0000C062023F0A0
:10A880001F03D4E723780133237001359FE7C1F814
:10A890009830C1F8A00001339EE74FF0FF30D5E7B4
:10A8A00000ED00E024230100AAFF44003FDD00206A
:10A8B0000000F0FF08B5024B1B689847002008BD58
:10A8C00000D70020034B044A1860937843F002033A
:10A8D0009370704700D70020A8C50020F0B587B05E
:10A8E00007460E4614460021102268461D4607F012
:10A8F00001FB02238DF80230054B2A4621466846AB
:10A90000CDE90476019304F0CDFF07B0F0BD00BFA0
:10A910009F0E010008B50649064821F00701C1F164
:10A92000005202F5802205F021FD002008BD00BF85
:10A93000A709012004D700200122024B0020C3F800
:10A94000402570470090034020B1034B800143F045
:10A9500001031847704700BF90220100084B70B5F3
:10A96000C31A0D4607499B10044659434022064826
:10A9700006F0A9FA2B4601462046BDE8704018476C
:10A9800024D70020B76DDBB6901F0100402373B5BC
:10A990000B4C0093041B0B460D460A49A41061435F
:10A9A0000646094A094806F0B9FA011E05DA30469A
:10A9B0002B4602B0BDE87040184702B070BD00BF22
:10A9C00024D70020B76DDBB6850F0100901F010072
:10A9D00010B5EFF31184202383F31288BFF36F8F38
:10A9E000074A136823F00201DB07116002D401203B
:10A9F00006F046FC84F31188BFF36F8F10BD00BFD3
:10AA000074D7002070B50022012104460520FFF70D
:10AA1000ADFC0F4801F0C0FC0E4B984215D101F07F
:10AA2000CBFC26690C49304606F000F800280BDB09
:10AA3000012535642469084904F11C0005F0F6FF7E
:10AA4000002801DB0020E56470BD6FF00400FBE727
:10AA500059AB00000000AD0B4C2301001FB50022D4
:10AA60000123CDE902236B46084ACDF800D0CDF88A
:10AA700004D006F080FA002805DB4FF48042002362
:10AA8000684604F03FF805B05DF804FBA30F010031
:10AA90000C22104B014602FB0033002030B4D3E9F6
:10AAA0000E529863EFF31180202484F31288BFF3D1
:10AAB0006F8F1C6C04F0C00444F002041C6480F32B
:10AAC0001188BFF36F8F1DB12B4630BC0248184769
:10AAD00030BC704724D70020901F010010B4EFF362
:10AAE0001182202383F31288BFF36F8F1748016808
:10AAF00041F002040460C80707D482F31188BFF351
:10AB00006F8F012010BC01F06BBC1149D1F80C040F
:10AB1000D1F80C14C907F0D5EFF3118083F3128834
:10AB2000BFF36F8F0B490B6C03F0C00343F00203BC
:10AB30000B6480F31188BFF36F8F82F31188BFF32A
:10AB40006F8F002010BCFFF7A3BF00BF74D7002099
:10AB50000050004024D7002010B1012804D07047D5
:10AB6000034B1B6C5B0701D1FFF792BF704700BF1F
:10AB700024D700202DE9F041012207463449D1E8CD
:10AB8000EF3FC1E8E02F0028F9D133B9314932480D
:10AB90004B60CB608A6005F05CFF7B1E012B28D8E0
:10ABA000012F06D12D4BD3F81C3403F00303022BE5
:10ABB0001FD006F045FF0546E8B9294B1B78D3B1F5
:10ABC00002220646254BC3F80823244CDFF8948064
:10ABD000D4F81824D4F81834D20315D503F003039D
:10ABE000022B01D0012F0FD16DB386F31188BFF373
:10ABF0006F8FBDE8F081EFF31186202383F3128875
:10AC0000BFF36F8F0125E0E7C5B1304606F016F9B6
:10AC1000D4F81835DBB2012BDAD1D4F80421002A9C
:10AC2000D6D00022C4F80421D4F804210222C4F8AA
:10AC300018252022C8F88021A360C9E7002121201F
:10AC400004F074FAE4E70222044BC3F80423D0E7CB
:10AC500020D7002010D7002040D70020005000400F
:10AC60005DDD002000E100E008B5074806F02BFE9E
:10AC700038B10648FFF726FE0448FEF709F9002020
:10AC800008BD6FF01200FBE7B81F010091AC000097
:10AC90000A2838B50446074D04D1AB680D21284673
:10ACA0005B689847AB6803485B68E1B29847204609
:10ACB00038BD00BFB81F010038B545682B69B3B176
:10ACC0001035284601F0C0FF044680B901462846E9
:10ACD00001F07EFF084B98420BD1224628460749D7
:10ACE00001F04CFF224605213120FFF73FFB0020F9
:10ACF00038BD6FF00400FBE70000AD0B01AD0000B4
:10AD0000430970B507D10B4B596821B101250C6877
:10AD1000094E854001B970BD8A682A4002D030468C
:10AD20004B6898471CB1236821461C46F2E723462E
:10AD3000FAE700BF78D70020A41F01002DE9F043F7
:10AD400040F206354668D00648BF0320337B02EA4E
:10AD5000050558BFC2F3401087B001F01F07B5F5D5
:10AD6000837F144647EA43178DF8030041D00FD87C
:10AD7000062D18D007D8B5B1022D3CD06FF01500C4
:10AD800007B0BDE8F083B5F5807FF7D101250AE073
:10AD900040F20222954230D0B5F5407F2FD0B5F574
:10ADA000007FEBD1022522032BD5012372688B4053
:10ADB0009360326962BB07F01F037F0975D13D4A7A
:10ADC00084F4803102EB8302D2F80032C1F30041F7
:10ADD000C4F3404423F4E16344EA410423F007034D
:10ADE0001C4344EA800444EA0524C2F800420020DF
:10ADF000C6E70725D7E70425D5E70525D3E70325CB
:10AE0000D1E7630341BF012372688B40D360D0E771
:10AE10001036394630460DF1020201F0BDFE14F441
:10AE2000403F80460CD13946304606F0C7FA224BE7
:10AE30009845DCD130469DF8021001F013FFD6E7AB
:10AE40004FF0000901AB3946304603AACDE9043979
:10AE5000CDE90199CDF80C9001F0FCFC164B98421D
:10AE60008CD114F4003315D09DF8033084F4803471
:10AE7000C4F300448DF80E3039464B46304603AAE1
:10AE80008DF80C508DF80D4001F0E0FD0A4B984212
:10AE9000CDD073E7CDE9043339460DF103033046D5
:10AEA00003AA039301F0D6FCF0E7803352F8233075
:10AEB000FFDE00BF002584400000AD0BF0B5406808
:10AEC00001F01F04057B87B044EA45140569002D95
:10AED0005FD0B2F5001F00F1100506D121462846CB
:10AEE00006F06EFA002007B0F0BD0027B2F5800F23
:10AEF00001AE0197776037D1B3F1007F14BF05230E
:10AF000004238DF804300023CDE9046303938368A0
:10AF100023FA01F111F0010118D1B2F1A07F15D18E
:10AF200004F01F03620903F1800338D11D4A52F86F
:10AF30002330DB070AD40DF10306324621462846AA
:10AF400001F02AFE184B984219D002962146284655
:10AF500003AA01F07FFC154B98421DD10122214626
:10AF6000284601F097FEBDE7B3F1C06F05D0B3F1FD
:10AF7000007F14BF01230223C3E70323C1E7314647
:10AF8000284601F07BFE094B9842DED06FF00B00A3
:10AF9000A9E76FF08500A6E76FF01500A3E751F869
:10AFA0002330FFDE002584400400AD0B0000AD0B14
:10AFB00008B5CA0743680AD4C1F34201012909D080
:10AFC00002290ED00121094A094805F04EFE6FF012
:10AFD000150005E04FF0CC721B680020C3F8242553
:10AFE00008BD4FF0C8621B68F7E700BF592E01008B
:10AFF00008220100F8B5446800AFE3690546066918
:10B000009847206A06F022F800281FDB33462046C6
:10B01000124A04F1080101F083FF114B984217D046
:10B020006C4688B02B686A460E49C2E905134FF496
:10B03000007393830C4B42F8103F0C4800234FF4ED
:10B04000E251FEF7E1FA6FF00400A546BD46F8BDF7
:10B05000204601F09FFF0020F8E700BFADB00000E0
:10B060000000AD0B6B2E010003000001082201005F
:10B0700070B5446823682046D3F80855D3F80C65AA
:10B0800001F098FF3146284602F02AFA0546206A68
:10B0900005F0DCFF204601F07DFF034B9D4214BF0D
:10B0A0006FF00F00002070BD0000AD0B0378012B86
:10B0B00008D0022B08D04BB9054B0B6201F11000F0
:10B0C00003F0FCBC034BF8E7034BF6E7034BF4E754
:10B0D0000000AD0B0100AE0B0200AE0B0100AD0B8A
:10B0E0002DE9F04F8DB002AFBA6014221D46D0F8A2
:10B0F00004B0D0F81080BBF8183006460C46B818DB
:10B100000021D8F824A0FB6006F0F4FE7D754FF016
:10B11000FF324FF0FF33404603F0F4FC08F1100318
:10B120007B604FF000090022002308F1100003F0BB
:10B13000E9FC4D46BB68994501D300243FE0207AE5
:10B14000020700F1AA80BB6809F10109994521684D
:10B150000AD2830708D4237D80EA030202F00102A9
:10B1600003F004031A4307D025B901F06043B3F19B
:10B17000005F36D0002300E001236268D7F80CE0BE
:10B1800005EB020CF4451ED96C468CB0316802AB5D
:10B19000DA61FA684248C3E9082140F203521A858D
:10B1A0001A46C3E905053F4B42F8103F00234FF410
:10B1B00051513D48FEF728FAA5466FF01B04404662
:10B1C00003F07CFC22E0C00705D40AEB05003B60DD
:10B1D00006F083FE3B6862682A4495B2002B47D193
:10B1E000CDB9002523683B626368227ABB6102F017
:10B1F00001013975BBF82410994210D22B4A0091F5
:10B200002948012105F044FD6FF01B0420462C372E
:10B21000BD46BDE8F08F2B46C7F820A0E5E782F0D9
:10B220000202C2F340025846520107F1140101F034
:10B23000DFFE1F4B984205D00B3398420CD16FF0C4
:10B240000F04BCE74FF480420023786803F05AFCF7
:10B2500028B13046FFF70CFF6FF00404AFE7D8F8D1
:10B260002030134A9342F7D1237ADB0702D400251A
:10B270000C345FE73B6A9A45F9D1234608E0A91AE6
:10B28000D8688DB21AFA81F13B6006F026FE3B6861
:10B290005A680C3B9542F2D2E9E76FF085048EE7DD
:10B2A0008B2E01000600000108220100562F01002C
:10B2B0000000AD0B2DE9F04740F2FF16594FDFF8C3
:10B2C00068C1DFF868E100EB8101814202D1002012
:10B2D000BDE8F087046814F4804FC4F3C325C4F3B9
:10B2E000080340F08C80640CB34208BF4FF0FF337A
:10B2F0007D5D192C00F28680DFE804F00D13191C27
:10B300001F251C848484843660848484848484849B
:10B31000848463787B7EC2F80C355C1C5BD104307E
:10B32000D3E7C2F814355C1CF9D000245CE0C2F805
:10B330000835F2E7C2F81035F5E75C1CC2F80835AD
:10B34000EDD0002404E05C1CC2F80C35E7D00124E9
:10B350005FEA531859D14FF00109DFF8CC8009FAA0
:10B3600003FAC8F80CA008E0C2F80835002DDAD1BD
:10B370005C1CD4D000240625A146D0F800A00AF415
:10B380000048B8F1000F1CBF4FF00009012403F082
:10B390001F085B093FD10CEB8808D8F80032CAF3CC
:10B3A000412A03EA0E0343EA8A0343EA052343EAF8
:10B3B000090343EA4403C8F80032B0E7C2F80C3589
:10B3C000D4E7C2F86035B3F1FF3F0468A7D0C4F3F7
:10B3D0000044002CBBD05C091AD10124DFF848805E
:10B3E00004FA03F9C8F80890A146C6E7C2F8643524
:10B3F000E9E7C2F86835E6E7C2F86C35E3E76FF0D5
:10B40000150065E76FF0850062E70023DB60FFDE73
:10B4100000239B60FBE7002308F1800853F82830E5
:10B42000F5E700BFB42F010000258440F0F8FCFFD1
:10B430002DE9F74306464FF00008002201210820BD
:10B44000FEF794FF0820FEF761FF776835693C68D6
:10B450004146C4F800852E60D7F80C9001AA4846F2
:10B4600005F004FE002837DB019BD9F8002019798C
:10B470001868FFF71FFF00282EDB6B7A3169012B5C
:10B4800003D0032B26D14FF01008AB7A032B21D128
:10B4900095F80BC0BCF1000F02D0BCF1010F19D11F
:10B4A0002A7A12B1022A15D10E226B687068B3F5A0
:10B4B000164F00687BD02DD8B3F5165F7AD016D81A
:10B4C000B3F5966F78D00AD8B3F5967F77D0B3F5F9
:10B4D000167F77D06FF0850003B0BDE8F083B3F539
:10B4E000166F72D0B3F5965FF4D15C4B3EE0B3F5C6
:10B4F000E14F6DD007D8B3F5615F6BD0B3F5964FD0
:10B50000E8D1574B32E047F6122E7345E2D14FF4A3
:10B5100000032BE0B3F5613F5ED013D8B3F5963F3F
:10B520005DD009D84DF6C02E73455AD0B3F5614FA2
:10B53000D0D14FF46B0319E0B3F5E13FCAD14FF01E
:10B54000EB7313E0B3F5612F4ED009D8DFF814E1A7
:10B5500073454CD0B3F5E12FBCD14FF0E86305E063
:10B56000DFF804E17345B5D14FF08053C0F82435BE
:10B57000736848EA0C081B6842EA0802C3F86C25A5
:10B580000B1DD5E9010183E803007B6899073DD5D0
:10B5900005F1180000F0B2FF344B98422AD034482D
:10B5A0000121344A05F061FB6FF0040094E74FF489
:10B5B0001D03DBE7304BD9E74FF49E23D6E74FF46A
:10B5C000A033D3E74FF41C33D0E74FF41D23CDE76E
:10B5D0002A4BCBE72A4BC9E74FF06C73C6E7294BE0
:10B5E000C4E74FF46503C1E74FF07063BEE74FF067
:10B5F0008063BBE7287E04F10C0204F5907105F02E
:10B6000038FE01202B7E984000F068FE0823C4F825
:10B6100000353B7A53B9C4F81031D4F810316B6956
:10B62000C4F834350123C4F8383523607B68002022
:10B630009A075CBF4FF48073C4F804337B68DB0661
:10B6400044BF4FF48003C4F804332B69C4F8443575
:10B650000123C4F84805A360E3603DE700B0130090
:10B6600000A04E0090D0030040420F000000AD0B40
:10B6700058220100BC2F01000050270000C07500B7
:10B6800000F03A0000903A012DE9F04104460D46E1
:10B69000076906F0D5F94FF02008B0B92C4B1B789C
:10B6A0009BB16426606805F00FFDF0B9012005F03C
:10B6B000DEFD013EF6D10021212003F037FDF0E749
:10B6C00086F31188BFF36F8FF5E7EFF311863146EC
:10B6D00088F31288BFF36F8F606805F0F5FC80B9BE
:10B6E00086F31188BFF36F8FEFE7EFF311863146D2
:10B6F00088F31288BFF36F8F606805F0E5FC0028BF
:10B70000DED03B691D70626838691368C3F8440570
:10B710000120C3F848050020C3F82001D3F82051C8
:10B72000C3F858015268D3F85801D20608D508204A
:10B7300062681268C2F800054FF48002C3F804235F
:10B7400001229A6081F31188BFF36F8FBDE8F08109
:10B750005DDD00200123834070B5DC430B4AD2E855
:10B76000EF1F01EA0405C2E8E65F002EF7D14FF4AF
:10B77000803282400648C0F80823BFF35F8FBFF3D2
:10B780006F8F0B4214BF0120002070BD88D70020AE
:10B790000050014070B40E4922F07F46D1E90034D8
:10B7A000D01AC31844F10004C1E90034A6F500130F
:10B7B000B3F5400F09D2074B1B681A0A1B069C19E8
:10B7C000054B42F10005C3E9004570BC03F032BEF1
:10B7D000D0D400208CD70020D8D40020D9B10123A8
:10B7E0000D4A8340D2E8EFCF4CEA030CC2E8E1CF28
:10B7F0000029F7D14FF48033084A8340C2F804335C
:10B80000074BD3E8AF3FC340DB0742BF4FF4001202
:10B81000044BC3F80021704788D700200050014036
:10B8200084D7002000E100E00D4B1868010A0006F3
:10B83000BFF35F8F0B4BD3F80435181841F10001AB
:10B84000B3F5801F0AD2084BD3E90023904271EB75
:10B85000030303D210F1807041F10001704700BF73
:10B860008CD7002000500140D8D400202DE9F04FA3
:10B8700085B016461F4604469DF840A0FFF76AFFB4
:10B880000190FFF7D1FFB04271EB070352D23B4B5F
:10B89000301A67EB0101984271F100014DD2384B2B
:10B8A00003EB0413D3E902239F4208BF964258D00A
:10B8B0004FF48038334908FA04F8204626F07F4BCD
:10B8C000C1F8488305F047FC4FF00309584604F1DE
:10B8D0005005AD00ADB205F1804504F5A87305F53E
:10B8E000A8350293029A20F07F4341F82230C1F834
:10B8F0004483D1F80435244AC01A033820F07F402D
:10B9000090422ED9286868B1D1F80435A3EB0B001A
:10B9100020F07F40B0F5000F039322D9204605F0B8
:10B920001AFC039BBAF1000F07D109EB030009F1E0
:10B930000109D7E7BAF1000F09D06FF015052046CD
:10B940000199FFF74BFF284605B0BDE8F08F0123B2
:10B950000E4AA340D2E8EF0F1843C2E8E10F0029D6
:10B96000F8D107490E982301C8500F9B01EB041230
:10B970000025C2E902675360E1E700BF01008000D3
:10B98000C0D4002000500140FDFF7F0084D700207C
:10B990007FB500254FF0FF304FF0FF31194C1A4BA7
:10B9A0000226C4F80833C4F84833184BC4F80855C5
:10B9B000C3E902014FF480334FF40012C4F804339A
:10B9C000134B0121C4F804631520C3F880212A46D3
:10B9D000FEF7CCFC1520FEF799FC01230D4AA3606D
:10B9E000236013600C4B0D4A009328460023CDE9D9
:10B9F0000155FFF73BFF3046FFF7BCF8284604B07F
:10BA000070BD00BF0050014003000F00C0D40020F3
:10BA100000E100E088D7002095B70000FFFF7F001D
:10BA20002DE9F7432E4BD3F8042390070BD5D3F819
:10BA3000042142B10022C3F804212A4AD3F8043178
:10BA4000136801331360264AD2F80433D90326D58C
:10BA5000254BD3E8EF1F21F00100C3E8E40F002CD1
:10BA6000F7D1CB0702D4D2F84031C3B100251C4C2A
:10BA7000C4F84051D4F84031FFF7D6FEEFF31182FD
:10BA8000202383F31288BFF36F8F184BD3E902672B
:10BA9000B042B94106D282F31188BFF36F8F03B071
:10BAA000BDE8F0834FF0FF38D3E900104FF0FF39C5
:10BAB0001D60C3E902894FF48033C4F84833C4F8E9
:10BAC0004051D4F8403182F31188BFF36F8F0029C1
:10BAD000E5D0009032463B4628468847DFE700BF66
:10BAE000005001408CD7002084D70020C0D4002013
:10BAF00030B5431C124C85B005D08442A8BF044623
:10BB0000012CB8BF0124FFF78FFE0E4B0C4DD3E97B
:10BB10000013401AB0F5000F0FD22218AA4228BF16
:10BB20002A46002052180849CDE90100009143F14E
:10BB30000003FFF79BFE05B030BD2A46F1E700BFCA
:10BB4000FFFF7F00D0D4002095B7000008B5FFF7B5
:10BB50006BFE024B1B68C01A08BD00BFD0D400208A
:10BB6000F0B50F4B01461A680E4B0B250026184600
:10BB70001F46B84201D3013D04D11846013A19606D
:10BB80005A60F0BD04688C42FBD03CB14468141B81
:10BB9000A642BCBF034626460830EAE70346ECE768
:10BBA00000D800200CD800200020054BC3E900007D
:10BBB000044BD3E8EF2FC3E8E10F0029F9D1704718
:10BBC00004D8002000D800202DE9F04F87B00546AA
:10BBD0000E4605F071FE20B96FF06D0007B0BDE8AC
:10BBE000F08F06F066F833680446002B0F4604D148
:10BBF00003F01AFA6FF00A00F0E7BCBF4FF0FF3312
:10BC000033600122002101A805F00EFFE8460595EA
:10BC1000EFF3118B202383F31288BFF36F8F06F0AD
:10BC200079F9DFF828A1DFF828915AF80000FFF72A
:10BC300097FFD9F8003042689A426ED10023454DF3
:10BC400000936B68002B6FD1C5E900888BF31188D6
:10BC5000BFF36F8F33685A1C6BD04FF4004E40F225
:10BC6000E730002123EAE37C4FF47A720023CCFB17
:10BC70000E01FCF767FA02460B4601A802F042FFEC
:10BC8000EFF3118B202383F31288BFF36F8F002211
:10BC90002B685BB1434556D10099002A4DD16A68A3
:10BCA00029609A4200D169600023009306F032F9BE
:10BCB0005AF80000FFF754FFD9F8003043608BF3C7
:10BCC0001188BFF36F8F05F0F7FD002884D0356829
:10BCD0006B1C27D005F0EDFF4FF47A7EA0FB0E32EF
:10BCE0000EFB0121A4FB0E420EFB0722DB0BE40B33
:10BCF00043EA414344EA42441B1B4FEAD1314FEA35
:10BD0000E57C61EBD231ED1A6CEB010CBCF1000F5C
:10BD1000B8BF002535602DB96CE743608BF31188FF
:10BD2000BFF36F8F002059E7C3F80080C5F8048087
:10BD30008CE74FF0FF3213469FE711606968994224
:10BD400008BF6A60B0E71A461B68A2E70800000057
:10BD500000D8002004D80020024600B506F0DAF82A
:10BD6000014B1A505DF804FB0C00000030B404686D
:10BD70002CB10C4B9C4202D370339C4209D30A4B2A
:10BD80001C78062C09D8651C1D70064B03EB0413A8
:10BD90000360006830BC05F047BE6FF00B0030BC9C
:10BDA000704700BF90D7002052DD002038B505460F
:10BDB0000A4BD3E8EF1F0131C3E8E21F002AF8D194
:10BDC000074B1C6804B938BD6369AB4201D005B1AB
:10BDD00013B9201D02F072FE2468F3E700D800209A
:10BDE00004D80020014600220023014805F0E3BDED
:10BDF0005CD800200146014805F0E7BD5CD8002072
:10BE0000014600220023014805F0D5BD70D800206E
:10BE10000146014805F0D9BD70D8002070B505462F
:10BE2000054C064EB44200D370BDD4E9003128461B
:10BE300098470834F6E700BF3C3301003C3301006B
:10BE4000014801F033BF00BF1DBE0000014610B520
:10BE5000064801F031FF034630B1BDE81040012132
:10BE6000034A044804F00ABF10BD00BF882E010039
:10BE7000FF2F01002822010008B5B0B90B4805F0DA
:10BE8000C2F90B4805F0BFF90A4805F0BCF90948AA
:10BE900005F0B9F9074805F0B6F9064805F0B3F919
:10BEA000BDE80840034805F0AEB908BD25300100E3
:10BEB000443001003432010010B50749074805F04D
:10BEC000ABF9044628B101210346054A054804F0B0
:10BED000D5FE204610BD00BF35C1000084D800202B
:10BEE0006A300100402201002DE9F041DFF8D481E1
:10BEF0000D46D8F8704000AF072C00F008065BD064
:10BF0000132C00F0A080052C40F0B980D8F85480A4
:10BF10006D496E4805F07CF918F4805F41D06C499A
:10BF20006A4805F075F9172418F4006F04D06949C0
:10BF3000664805F06DF9182418F4007F0ED06649A4
:10BF4000624805F065F9654B18F4004F9B6B04D00F
:10BF50000121634A5D4804F091FE192418F4806FB2
:10BF600004D06049594805F053F91A2418F4807F29
:10BF700019D05D49554805F04BF91B24EB69002E9B
:10BF800040F09B80C3F3080222B96FEA53236FEAA3
:10BF90004323EB6129462046FDF7FEFDBD46BDE883
:10BFA000F0811624C0E718F4005FE7D04F494748F6
:10BFB00005F02EF91C24E1E7D8F85C4043484C49D1
:10BFC00005F026F9600606D5D8F868300121494AFF
:10BFD0003E4804F053FEE10705D547493B4805F0CC
:10BFE00017F92624CAE7A20705D54449374805F0C2
:10BFF0000FF92724C2E7630705D54149334805F007
:10C0000007F92824BAE7200705D53E492F4805F04F
:10C01000FFF82924B2E7E10605D53B492B4805F096
:10C02000F7F82A24AAE7A20605D53849274805F0DB
:10C03000EFF82B24A2E723063DD53549234805F028
:10C04000E7F82C249AE7D8F86C8032491F4805F0AD
:10C05000DFF818F0020F03D02F491C4805F0D8F87C
:10C0600018F0010F03D02D49184805F0D1F818F049
:10C07000040F83D02A49154805F0CAF87EE7294AFB
:10C08000294BE8468AB00F2CC8BF13466A46274999
:10C09000103CC2E905134FF400731384244BD461A0
:10C0A00042F8103F00234FF411510848FDF7ACFA55
:10C0B0000024C54662E7252460E723F4FF7323F0DC
:10C0C000010366E784D80020102C01004022010003
:10C0D000262C01008A2A0100372C010000ED00E027
:10C0E000502C0100652C0100802C0100EA2A01007F
:10C0F000A4300100BD300100CD300100E33001006B
:10C10000013101001C310100393101004E310100C3
:10C11000683101007B31010095310100C53101001A
:10C12000F3310100AD2C0100982C01008E2D01008F
:10C130000400000100B5104B89B05A6AD86C009217
:10C140009A6A20F005000192DA6A694602921A6B37
:10C1500003925A6B04929A6B0592DA6B06921A6CF0
:10C160001B6D07929B0748BF40F00400FFF7BCFE21
:10C1700009B05DF804FB00BF84D800202DE9F04130
:10C180001F46164B044693F800800D461646A2B093
:10C19000B8F1000F15D1684604F032FE3A46314638
:10C1A0002846289BA0470446684604F02AFEB8F1BA
:10C1B000000F02D00A4802F045FC204622B0BDE83C
:10C1C000F0814FF0FF324FF0FF33054802F0C2FB21
:10C1D0000028E0D06FF08304EFE700BF5DDD0020B2
:10C1E000D4CB0020002300B589B0CDE9063303ABE2
:10C1F0000493042303900593A9B10B6806934B683D
:10C2000007930223111E18BF01210848CDE9002120
:10C2100040F2F53104AA00F00BF80028B8BF012065
:10C2200009B05DF804FB0123ECE700BF0501004005
:10C2300010B4B1F5004F029C0ED2042B0CD8042C84
:10C240000AD8240444EA0364134644EA010201467E
:10C2500010BC0348FFF792BF6FF0800010BC70471E
:10C26000217C000030B50468ACB1B4FA84F301223B
:10C27000C3F11F03DBB29A4024EA0202D0E8EF5F69
:10C28000A54204D1C0E8EC2FBCF1000FF6D1EAD1F1
:10C2900002480B7030BD0248FCE700BF0000AD0B48
:10C2A0000200AD0B10B50368CB40DB0710D40123AF
:10C2B0008B40026843EA0201D0E8EF4F944204D178
:10C2C000C0E8EC1FBCF1000FF6D1F2D1014810BD5F
:10C2D0000148FCE70000AD0B0400AD0B014BC3F8B7
:10C2E0000405704700700140F7B5044618B10128F5
:10C2F00022D003B0F0BD0222264B0646C3F8082325
:10C300000122DA60C3F80401D3F80431012342F2B8
:10C310001075204F8DF80730D4B1012CE9D1D7F832
:10C320000C3403F4803386BB002BE2D0012004F0F0
:10C330009EFF013DF3D1DCE70022164B0DF107060D
:10C34000C3F808035860C3F80021D3F80031DDE7D3
:10C35000D7F8183403F480333EB9002BC9D001203C
:10C3600004F085FF013DF3D1C3E7D7F8182402F0AC
:10C3700003023270002BBCD09DF807000128B8D111
:10C3800004F075FF013DC7D1B3E7D7F80C2402F0E4
:10C390000102EEE700500040044B1A7922B9012255
:10C3A00018601A710248704702487047F8D8002098
:10C3B0000000AD0B0C00AD0B08B5074B1B6833B18B
:10C3C0000520FDF7C5FF10B90520FDF79FFF0122ED
:10C3D000024BC3F8182508BDF8D8002000500040D3
:10C3E00010B510B1012848D010BD294BD3F818144E
:10C3F000D3F81824C90324D502F00303022B05D077
:10C40000012B02D00020FFF76FFF0123204A0220FA
:10C41000C2F8183508224FF48273002103F18043DB
:10C4200003F5A04319601C68012402F1804202F563
:10C43000A0421460174A12681AB3154BC3F80403DC
:10C44000D2E7D3F81424D207DFD5D3F81C2402F0A6
:10C450000302013A012AD5D80E4A12681AB1022203
:10C46000C3F80423C0E7D3F80421002AFBD000223C
:10C47000C3F80421D3F80431B6E700224FF48073E7
:10C48000CBE71A68002AFCD019601B68ACE700BF34
:10C4900000500040F8D8002010B5164BD3F800210A
:10C4A00052B10020C3F80001D3F800210122C3F8E3
:10C4B0000823114B1B6898470E4BD3F8042182B117
:10C4C0000022C3F80421D3F80421D3F81824D3F8A8
:10C4D0001824022102F00302012A03D1C3F818151F
:10C4E0009A6010BDC3F80813034B0120BDE810404B
:10C4F0001B68184700500040F8D80020014601484A
:10C50000FFF7B0BEFCC50020036803F01F025B0903
:10C510000260024818BF0020704700BF0025844019
:10C5200070B432240279184B624352FA81F2083215
:10C5300033F81240E10524D5C4F3432124F4F85420
:10C5400023F8124064240026027904FB02340E34DE
:10C5500034F8025F15F4807F03D0C5F34325A94268
:10C560000FD00136202EF3D164240025624302EB64
:10C57000C1029D50027904FB023070BC5830FFF7B5
:10C5800091BE70BC704700BF00C6002032235843E4
:10C59000034B50FA81F1083133F81100400B70471A
:10C5A00000C6002032235843054B50FA81F1083170
:10C5B00033F8110080F00200C0F34000704700BF64
:10C5C00000C6002032235843044B50FA81F1083151
:10C5D00033F81100C0F34010704700BF00C60020C0
:10C5E000024611F0010004D003490B6A13600B628C
:10C5F00003B90020704700BF00258440F0B5054610
:10C6000000200126044607468C420BD1114BD3F87B
:10C610007C2132B10022C3F87C21D3F87C3140F078
:10C620000040F0BDE3B29B0003F580729B0806FA60
:10C6300003F31D420BD002F1804202F54432D2F8DE
:10C6400000C0BCF1000F02D017601268184301341B
:10C65000DAE700BF001003402DE9F3470546544BCD
:10C66000296DD3F80403C0B240F00040FFF7C6FFC5
:10C67000061E18DA00236846E96D00934FF00108A2
:10C68000FFF7AEFF95F85C30DA0758D4296D4FF00C
:10C690000040FFF7B3FF6846E96DFFF7A1FF0028F0
:10C6A000F0D126F000460124002E68D102B0BDE88A
:10C6B000F08794FAA4F4B4FA84F4E00804F10803CF
:10C6C00035F8139004F007021DF8003008FA02F262
:10C6D00023EA02030DF8003001A80194FFF714FFCC
:10C6E000019B4FEA9901803350F82370C9F3820A05
:10C6F0004B07D146C7F3014725D552462846214668
:10C7000004F018FE01A80194FFF7FEFE019BFFB2A2
:10C71000803350F82330C3F301439F4207D10021F7
:10C72000204604F0F8FD3946204604F0F4FD01A847
:10C730000194FFF7E9FE019B08FA03F30362009CF2
:10C74000002CB6D1A2E7022F0DD10321204604F020
:10C75000E2FD0AF00503012BE9D14A4621462846AD
:10C7600004F0E8FDE3E70221204604F0D4FDBAF12D
:10C77000030FF2D0032FDAD1BAF1020FECE796FAE9
:10C78000A6F3B3FA83F304FA03F29B0003F18043A8
:10C7900003F54433D3F8101526EA0206D3F8102522
:10C7A0002846C2F30142C1F3042104F0C3FD7BE734
:10C7B0000010034032222DE9F3410379214F534306
:10C7C00053FA81F3083337F813300546DB070C467C
:10C7D000CEB234D504F0CBFD95F804802146404616
:10C7E000FFF7F0FE60B121464046FFF7CFFE2A6812
:10C7F00000B202EB80030022C3F81025C3F8102515
:10C8000028462146FFF78CFE32222B7901A802FB35
:10C8100003660023083627F816300194FFF774FEEC
:10C82000019B00EB8300D0F80022074B134043F03C
:10C830000203C0F80032054802B0BDE8F0810448A8
:10C84000FAE700BF00C60020F0F8FCFF0000AD0BC7
:10C850000400AD0B2DE9F043D2F8009004460D46DC
:10C86000164685B0B9F1000F34D032220079DFF8D6
:10C87000D081424352FA81F2083238F81230CFB2F6
:10C880009B0703D5FFF79EFE00283BD100230DF147
:10C890000F02CDE900338DF80E308DF80F300DF119
:10C8A0000E014B46284604F0EDFC3221237901FBB2
:10C8B0000373083338F8132022F0020228F81320FB
:10C8C000237901FB0377083738F8173043F0010369
:10C8D00028F817307368002B43D04FF0320C2279C0
:10C8E0001F780CFB02F2D3F804E052FA85F2544BA5
:10C8F000083233F81200E9B210F0020F04D0BEF192
:10C90000000F18D04F482FE020F4604020F02000A6
:10C9100023F81200BEF1000F0DD0032FF2D8726879
:10C920005068226890F800E002EB8E02FFB9C2F86E
:10C930001075C2F810754FF0320C22790CFB021200
:10C94000083233F8120020F01C0023F8120022797C
:10C950000CFB0211083133F8112042EA870223F858
:10C960001120B36863BB384805B0BDE8F083D2F846
:10C97000108528F00308C2F81085226802EB8E00AB
:10C98000D0F8102522F4473222F44072C0F8102566
:10C990002A02D0F8108502F4F85242EA074242EA2D
:10C9A0000802C0F8102522790CFB0212083233F875
:10C9B000120040EA4E3040F0200023F81200BAE79F
:10C9C0002946D3E900872046FFF7AAFDB8F1000FFA
:10C9D000C9D0642320791A4E4343F218F35898457E
:10C9E00004D153689F4201D100210CE0642303FB72
:10C9F00000600DF10F015830FFF734FC124B9842E4
:10CA0000B2D19DF80F1064222379534303EBC10385
:10CA100046F8038023795343322203EBC1033344A6
:10CA20005F602379534353FA85F3083336F81320B4
:10CA300042EA412242F4807226F8132093E700BFB5
:10CA400000C600200400AD0B0000AD0B2DE9F04343
:10CA500005460C461F4685B09AB306793046FFF767
:10CA6000A1FD20B121463046FFF7ACFD80BB32234B
:10CA70005E43DFF8FC9056FA84F6083639F8163033
:10CA80005FFA84F813F01C0F02D05378012B1FD0EB
:10CA900001238DF80F3000232046CDE900230DF14E
:10CAA0000F01931C013204F0EDFB32222B7902FBC3
:10CAB000038808F1080839F8183043F0030329F80F
:10CAC0001830002F51D021462879FFF76BFD18B19F
:10CAD000284805B0BDE8F0833E782B68244903EB75
:10CAE0008603C3F81005C3F8100532202B794FEAEE
:10CAF000860C434353FA84F3083331F813E0E2B26F
:10CB00002EF4604E2EF0200E21F813E097F801E08D
:10CB1000BEF1000F29D02B68BF789C44DCF810359B
:10CB20004FEA0E4E23F4981323F4F853CCF8103543
:10CB3000230203F4F8530EF4403E3F05DCF8108561
:10CB400043EA0E0307F480173B4343EA0803CCF89B
:10CB500010352B7900FB0322083231F8123043EAFA
:10CB6000463343F0200321F812300348B1E700BFF9
:10CB700000C600200400AD0B0000AD0B30B56425ED
:10CB80000479044B05FB0434A160017905FB0133F2
:10CB9000DA6030BD00C6002038B505790C4628465D
:10CBA000FFF710FD58B132235D43064B55FA84F46C
:10CBB000083433F8143004485B0B137038BD034855
:10CBC000FCE700BF00C600200000AD0B0400AD0B69
:10CBD0002DE9F041064607796420184D00FB0758FF
:10CBE00098F8604044BB404621464022103005F092
:10CBF00081F921463068D8F850608E4212D1002366
:10CC0000C0F87C31D0F87C3140F30730FDF77EFB73
:10CC1000642303FB07550123094885F86030AB65A1
:10CC2000BDE8F081CBB29B0003F580727C2B04BF82
:10CC3000845083580131E0E70248F1E700C6002044
:10CC40000000AD0B0C00AD0B64210279044B01FB1D
:10CC5000023393F86000003818BF0120704700BF0E
:10CC600000C6002064235422007913FB00230248ED
:10CC70001844FFF717BB00BF00C6002064235422EE
:10CC8000007913FB002302481844FFF7EBBA00BFFA
:10CC900000C6002073B503680D46D3F8041306469A
:10CCA0000029A4BF4FF00041C3F8041304792946BA
:10CCB0002046FFF787FC00B329462046FFF772FCA9
:10CCC000D8B129462046FFF761FC002501B234683F
:10CCD000890001F58073E550E35833680B44D3F8BD
:10CCE000101541F00101C3F8101522B1012332687B
:10CCF0008340C2F8043302B070BD32235C43104B52
:10CD000054FA85F4083433F81430C3F38203042B47
:10CD100011D0052B11D001A80195FFF7F5FB019A61
:10CD20000369D34003F00103991C284602B0BDE813
:10CD3000704004F0F0BA0321F7E70221F5E700BFE5
:10CD400000C600200148FFF787BC00BF64C6002072
:10CD500070B5084C0E462379154643B92A20FDF7D5
:10CD6000D5FA0123044823712660A56070BD0348ED
:10CD7000FCE700BF00D900200000AD0B0C00AD0B9C
:10CD8000002330B50D4A50F8234003F5A27101335A
:10CD9000082B42F82140F6D10023084A00F11C017B
:10CDA00003F5B27451F8045F0133082B42F82450A4
:10CDB000F6D1036CC2F8043330BD00BF00A00240BE
:10CDC00038B50024154D2A20C5F81045C5F814457E
:10CDD000C5F81845C5F81C45C5F82045C5F82445D3
:10CDE000C5F82845C5F82C45C5F89045C5F89445C3
:10CDF000C5F89845C5F89C45C5F8A045C5F8A445B3
:10CE0000C5F8A845C5F8AC45FDF78EFA4FF0FF33DD
:10CE1000C5F80833024B1C7138BD00BF00A00240AA
:10CE200000D900200123024A8340C2F8043370472E
:10CE300000A002400123024A8340C2F80833704731
:10CE400000A00240F8B5012600270B4B0B4DD3F88C
:10CE50000C4304B9F8BD94FAA4F0B0FA80F006FAD5
:10CE600000F324EA0304064B82009F502B68002B3A
:10CE7000EFD0A9689847ECE700A0024000D9002055
:10CE800000A1024010B4CC7B8A6803682CB9D1E9B8
:10CE90000041C3F80845C3F80C15C3F8242528221F
:10CEA00003795343054AD3582BB1006810BC40F3B3
:10CEB0000730FDF72BBA10BC704700BF0CD900201B
:10CEC00070B5817BE9B9046804F01F0364091AD1C5
:10CED00040F20C65104A114E02EB8303D3F80012A6
:10CEE00031402943C3F80012416801F01F0349098A
:10CEF0000DD102EB8303D3F8002232402A43C3F85A
:10CF00000022012070BD803351F82330FFDE8033D2
:10CF100054F82330FAE700BF00258440F0F8FCFF06
:10CF20002DE9F041074690F80480282000FB08F026
:10CF3000144E0C46351895F82210F1B9A9603250FC
:10CF40006B6085F8251085F824106CB1A37B204612
:10CF500085F82730FFF7B4FF88B1637B2146384658
:10CF600085F82630FFF78EFF282303FB0866012390
:10CF7000054886F82230BDE8F0810448FBE7044804
:10CF8000F9E700BF0CD900200000AD0B0C00AD0B81
:10CF90000400AD0B062103680279C3F800152821AF
:10CFA000034B01FB0233022283F82220704700BFAB
:10CFB0000CD90020282102790B4B01FB0233002100
:10CFC000996002680948C2F80803D2F8000220F408
:10CFD000BC50C2F80002C2F80015012283F82410E8
:10CFE00083F82220704700BF0CD9002002029C0168
:10CFF0002DE9F84F28239046002290F80490AE4D7A
:10D00000046803FB095383F823204B680E4633B1B1
:10D01000CB6803F06043B3F1005F40F08581337863
:10D02000023B012B06D8336903F06043B3F1005F84
:10D0300040F07A81A14BC4F80833282303FB09533D
:10D0400093F8241001F0FF0239B19B68DFF870B249
:10D05000C4F804335846BDE8F88F18F0140F0CBF1D
:10D060000121002183F82410317809EB890783F826
:10D070002010717805EBC70783F82110F168D9609B
:10D080007168196131695961B168C3F81C8099618F
:10D09000C8F3001183F825107378C4F88835C4F8F4
:10D0A0006021D4F86031C4F84821D4F84831C4F87C
:10D0B0002421D4F82431C4F80421D4F8043118F020
:10D0C000010318BF0123C4F8503518F0020318BF3C
:10D0D0000123C4F840353378032B00F2A480DFE845
:10D0E00003F0799962024FF48073C4F80032D7E9F3
:10D0F0000323C4F84425C4F848350123A3604FF442
:10D100008011204604F0A0F90028F8D1D7E90523C2
:10D11000C4F84425C4F8483528234FF4802203FB83
:10D1200009539A60DFF89CB1282202FB09F218F03B
:10D13000080AAB5805EB020013D13178032910D04F
:10D14000012940F086802160002B6FD0282202FB4D
:10D1500009F27168AA5821B9002A00F0BB800122A7
:10D160006261282202FB09F2A918AA58002A00F0DD
:10D17000B18018F0040F1CBF00228A6018F0400F25
:10D1800006D1282202FB0952916841F00201916008
:10D19000282202FB0952916841F400719160926863
:10D1A000C4F8042356E7D7E90323C4F84425C4F898
:10D1B0004835D7E90523C4F83425C4F838354FF489
:10D1C0008453C4F80032012323622823022203FB84
:10D1D0000953A6E718F0200FD7E90323C4F8442524
:10D1E00014BF4FF480724FF40072C4F848354FF00A
:10D1F000280315BFC4F80022C4F800224FF480228F
:10D20000022214BF03FB095303FB09539A60012355
:10D21000236287E7D7E90323C4F83425C4F83835F7
:10D220004FF48053CDE7DFF8A0B07DE7026902B983
:10D2300061612649DFF898A0204604F005F9012233
:10D2400010F4007F18BF626110EA0A0F1F49F3D083
:10D250007CE70121A160002B7FF478AF006918B34F
:10D260001B4B1AEA030F7FF471AF2046174904F0F5
:10D27000EBF810F4007F8246F2D04FF08071204628
:10D2800004F0E2F8D4F8001280B111F4007003D178
:10D290000122824622626261CB05E1D54FF48021F2
:10D2A000204604F0D1F804E06161D9E7012222624E
:10D2B00062614FF0000AD3E70CD9002002029C0102
:10D2C0000B00AD0B0000AD0B0400AD0B020204001F
:10D2D00002000400282101FB09550021D4F8C424D0
:10D2E000C4F8C42485F824108AB11149114B12F0F6
:10D2F000010F14BF8B469B46013112F0020F18BF7D
:10D300008B4612F0040F0C4A18BF9346A2E618F0A1
:10D31000400F7FF49FAE3946204604F053F8054A8B
:10D32000002808BF934695E6DFF810B092E600BFEC
:10D330000000AE0B0100AD0B0200AE0B0A00AD0BFE
:10D3400070B55D4D022186B0284604F07DF84FF49B
:10D3500000710646284604F077F8584CD8B1E6B973
:10D36000A3684FF08071C5F808330223A360A36857
:10D370002846C5F8043304F067F818B1D5F8003230
:10D380009B0503D401224C4B1A625A61012384F895
:10D39000233006B070BD002E58D0E5696E060AD461
:10D3A00094F823303BB94549434804F00BF880F02A
:10D3B000010084F8230015F0040525D13E4B94F8B4
:10D3C0002520C3F86051D3F86011C3F85C51D3F83D
:10D3D0005C1112B194F823205AB10022C3F8002244
:10D3E000A260374AC3F808234FF48062354BC3F874
:10D3F0008021238CADF80430E36804932369029301
:10D4000063690593A36903932B4AD2F8C434980740
:10D41000C2F8C4344AD459074AD4DA074AD494F833
:10D4200023309B00DBB28DF8003094F825300BB927
:10D4300084F82430E3695B0703D594F82330002B8C
:10D44000A7D0D4E9003168469847A2E74FF480217D
:10D45000284603F0F9FF94F82030ABB994F8253052
:10D4600053B94FF48062C5F80032A360144BC5F87D
:10D470000833144BC3F8802100238DF8043094F84E
:10D4800021308DF80530B7E74FF40073C5F800324E
:10D4900040F20223A36003F1CE73C5F80833A368FA
:10D4A000C5F804330123AB602B6272E70123BAE7AE
:10D4B0000223B8E70323B6E700A000400CD9002000
:10D4C00002029C0100E100E0036803F01F025B0917
:10D4D0000260024818BF0020704700BF002584404A
:10D4E000F7B5064603F0DAFF084603F0D7FF01A8B8
:10D4F0000196FFF7E9FF0C4640F20D61019B2B4DB1
:10D5000000EB8300D0F8003201942B400B43C0F8AD
:10D51000003201A8FFF7D8FF019B012700EB830031
:10D52000D0F800322B400B43C0F80032042003F047
:10D530009EFE092501A80194FFF7C6FF019A036921
:10D54000D340DB0714D401A80196FFF7BDFF019B70
:10D55000013D07FA03F3C360042003F088FE304660
:10D5600003F09CFF042003F082FE15F0FF05E1D1DB
:10D5700001A80194FFF7A8FF0123019A9340C3601B
:10D58000042003F074FE204603F088FF042003F01B
:10D590006EFE01A80194FFF797FF019A0369044802
:10D5A000D34003F00103C01A03B0F0BDF0F8FCFF54
:10D5B0000100AD0B70B503680446033BDBB2052BDD
:10D5C00003D8094A52F823502DB9A06858B1BDE8D4
:10D5D000704000F011B803F0BBFF21682B46BDE896
:10D5E0007040090C184770BD64240100014B1B6892
:10D5F000184700BFC8C60020014B1B69184700BF71
:10D60000C8C60020014B9B68184700BFC8C6002051
:10D61000014B1B68D868704734D90020002230B510
:10D620000B4B19680C6894420FD001EBC2039D6844
:10D63000A8420BD14FF003020433D3E8CF1F0029D7
:10D6400003D1C3E8C02F0028F7D130BD0132EAE78B
:10D650004CD900202DE9F041002406460F46204613
:10D66000DFF854803368A34201D8BDE8F08106EBAF
:10D67000C4056B68DBB2012B16D16A68B8F80030BC
:10D68000B3EB124F10D1022FA8680FD1FFF792FF12
:10D6900001206B6823F0FF0343F003036B60B8F8CD
:10D6A00000300133A8F800300134DBE70168090CD1
:10D6B00003F000FFECE700BF38DD002010B5074C99
:10D6C00002216068FFF7C6FF0028F9D10121206818
:10D6D000FFF7C0FF0028F3D110BD00BF54D90020D0
:10D6E00070B5072860D8DFE800F00B5F475F435F45
:10D6F0003C0400F017FF0320BDE87040FEF756BB66
:10D7000003202A4BD3F81446D3F81866284B1D780B
:10D710001870EDB200F0D4FE012D10D1254B264A31
:10D720009C4212D0230C1B04B3F1886F0DD0A4F5DA
:10D730008033203B022B0FD96FF004031360314676
:10D74000C4F30B0000F0B0FE00E014601B4B18683F
:10D7500003F015FD0020CFE7194931F913301360AC
:10D76000F4E70024124B20461C7000F0A9FEEDE700
:10D77000FFF7A4FF0220BFE70D4B1A78012AD0B2B1
:10D780000ED1104A1168104A8C68546049681160C3
:10D7900002221A7000F094FE084B186803F0EFFCA8
:10D7A000FFF78CFF0120A7E770BD00BF00A002407B
:10D7B00054DD00200100500550D900203CD9002044
:10D7C0007C26010038D9002054D900200A23F7B55F
:10D7D0004FF47A750C4E0D4F01933168386803F0A1
:10D7E00092FE044640B903F0C8FC40B9012001A9EB
:10D7F000FEF7EAF96E30F0D1204603B0F0BD019893
:10D80000684303F0B8FCE8E740D9002048D900207D
:10D81000054B1B782BB9054B1968054B186803F0AD
:10D8200072BE0020704700BF53DD002044D90020A5
:10D830004CD9002070B5164B42681B6822F0FF02DD
:10D8400042F00202C31A42601248134A0168C3F34D
:10D850008913D2E8DF4F651CC2E8D65F002EF8D1ED
:10D8600001EBC3014A6892B242EA04424A6002688C
:10D87000032002EBC302536823F0FF0343F00103CC
:10D88000536003F078FC0122044BDA6070BD00BFE6
:10D8900044D900204CD900203ADD002000A00240ED
:10D8A0002DE9F04F95B038220021064603A804F078
:10D8B00021FB0223049308230693202308930423C7
:10D8C0000D93102340250F9380230122CDE911539E
:10D8D000D523002157480B921393FEF747FA0546CC
:10D8E000002840F0A380024653493079FFF730FA10
:10D8F00003A8FFF745FA34686268B2F59D6F40F0FF
:10D9000092806169E3680B44E16903F59D630B4410
:10D91000B3F5003F00F287802068294604F0EAFA58
:10D9200033681C68D3F81C9004F53A72019204F134
:10D930006007424A04F1A40804F1200BB9F1000F7A
:10D940005BD1C2F800B000254FF0010A2570657068
:10D9500084F802A0E570336840461B696360336851
:10D960005B69C4F814B0A360354BC4F81890C3F8D1
:10D970000080344BE7601F600823C4F8108084F8EF
:10D98000A43088F8015088F8025088F8035084F8D1
:10D9900060307D70BD70FD7003F098FD384603F077
:10D9A00095FD294B04F53A721A60284B04F1E80200
:10D9B00031681A60264B274E1960274B2749C3F858
:10D9C0001046C3F81456264B264C1D80264B86F86D
:10D9D00000A01D80254B029525601D611B690293E7
:10D9E000029B144B186803F0CCFB98B103236FF033
:10D9F00073043370FFF7E4F911E09B6904F1400907
:10DA0000636433684846DB69C2F800B0236400F001
:10DA100065FD98E72468002CECD1154B1C7020465E
:10DA200015B0BDE8F08F6FF01504E3E76FF02D043B
:10DA3000F5E700BF3CD90020E1D6000038D900202E
:10DA40004CD9002048D9002044D9002040D90020DA
:10DA500034D9002054DD002000A00240F04902002B
:10DA60003ADD002050D9002038DD0020005600406B
:10DA700053DD002070B5164B42681B6822F0FF0290
:10DA800042F00102C31A42601248134A0168C3F30C
:10DA90008913D2E8DF4F651CC2E8D65F002EF8D1AB
:10DAA00001EBC3014A6892B242EA04424A6002684A
:10DAB000032002EBC302536823F0FF0343F001038A
:10DAC000536003F058FB0122044B5A6070BD00BF45
:10DAD00040D9002048D900203ADD002000A00240B3
